{
  "address": "0x8C30bF0bb18416f1d08810cA8Ab28AD5CA81a231",
  "abi": [
    {
      "inputs": [
        {
          "internalType": "contract IERC20",
          "name": "_xpToken",
          "type": "address"
        },
        {
          "internalType": "contract IRewardNft",
          "name": "_rewardNft",
          "type": "address"
        },
        {
          "internalType": "address",
          "name": "_cryptoPunks",
          "type": "address"
        },
        {
          "internalType": "contract MinimalForwarder",
          "name": "forwarder",
          "type": "address"
        },
        {
          "internalType": "address",
          "name": "_vrfCoordinator",
          "type": "address"
        },
        {
          "internalType": "uint64",
          "name": "_vrfSubscriptionId",
          "type": "uint64"
        }
      ],
      "stateMutability": "nonpayable",
      "type": "constructor"
    },
    {
      "inputs": [
        {
          "internalType": "address",
          "name": "have",
          "type": "address"
        },
        {
          "internalType": "address",
          "name": "want",
          "type": "address"
        }
      ],
      "name": "OnlyCoordinatorCanFulfill",
      "type": "error"
    },
    {
      "anonymous": false,
      "inputs": [
        {
          "indexed": false,
          "internalType": "uint256",
          "name": "xp",
          "type": "uint256"
        }
      ],
      "name": "AttackExecuted",
      "type": "event"
    },
    {
      "anonymous": false,
      "inputs": [
        {
          "indexed": false,
          "internalType": "uint256",
          "name": "bossIndex",
          "type": "uint256"
        }
      ],
      "name": "BossInvoked",
      "type": "event"
    },
    {
      "anonymous": false,
      "inputs": [
        {
          "indexed": false,
          "internalType": "uint256",
          "name": "totalBosses",
          "type": "uint256"
        }
      ],
      "name": "BossesPopulated",
      "type": "event"
    },
    {
      "anonymous": false,
      "inputs": [
        {
          "indexed": false,
          "internalType": "uint256",
          "name": "height",
          "type": "uint256"
        }
      ],
      "name": "CharacterGenerated",
      "type": "event"
    },
    {
      "anonymous": false,
      "inputs": [
        {
          "indexed": false,
          "internalType": "address",
          "name": "character",
          "type": "address"
        }
      ],
      "name": "CharacterHealed",
      "type": "event"
    },
    {
      "anonymous": false,
      "inputs": [
        {
          "indexed": true,
          "internalType": "address",
          "name": "from",
          "type": "address"
        },
        {
          "indexed": true,
          "internalType": "address",
          "name": "to",
          "type": "address"
        }
      ],
      "name": "OwnershipTransferRequested",
      "type": "event"
    },
    {
      "anonymous": false,
      "inputs": [
        {
          "indexed": true,
          "internalType": "address",
          "name": "from",
          "type": "address"
        },
        {
          "indexed": true,
          "internalType": "address",
          "name": "to",
          "type": "address"
        }
      ],
      "name": "OwnershipTransferred",
      "type": "event"
    },
    {
      "anonymous": false,
      "inputs": [
        {
          "indexed": false,
          "internalType": "uint256",
          "name": "requestId",
          "type": "uint256"
        },
        {
          "indexed": false,
          "internalType": "uint256[]",
          "name": "randomWords",
          "type": "uint256[]"
        }
      ],
      "name": "ReceivedRandomness",
      "type": "event"
    },
    {
      "anonymous": false,
      "inputs": [
        {
          "indexed": false,
          "internalType": "uint256",
          "name": "requestId",
          "type": "uint256"
        },
        {
          "indexed": false,
          "internalType": "uint32",
          "name": "numWords",
          "type": "uint32"
        }
      ],
      "name": "RequestSent",
      "type": "event"
    },
    {
      "anonymous": false,
      "inputs": [
        {
          "indexed": false,
          "internalType": "uint256",
          "name": "amount",
          "type": "uint256"
        },
        {
          "indexed": false,
          "internalType": "uint256",
          "name": "tokenId",
          "type": "uint256"
        }
      ],
      "name": "RewardsClaimed",
      "type": "event"
    },
    {
      "inputs": [],
      "name": "COORDINATOR",
      "outputs": [
        {
          "internalType": "contract VRFCoordinatorV2Interface",
          "name": "",
          "type": "address"
        }
      ],
      "stateMutability": "view",
      "type": "function"
    },
    {
      "inputs": [],
      "name": "acceptOwnership",
      "outputs": [],
      "stateMutability": "nonpayable",
      "type": "function"
    },
    {
      "inputs": [
        {
          "internalType": "uint256",
          "name": "",
          "type": "uint256"
        }
      ],
      "name": "bosses",
      "outputs": [
        {
          "internalType": "uint256",
          "name": "hp",
          "type": "uint256"
        },
        {
          "internalType": "uint256",
          "name": "damage",
          "type": "uint256"
        },
        {
          "internalType": "uint256",
          "name": "reward",
          "type": "uint256"
        },
        {
          "internalType": "uint16",
          "name": "punkIndex",
          "type": "uint16"
        },
        {
          "internalType": "bool",
          "name": "active",
          "type": "bool"
        }
      ],
      "stateMutability": "view",
      "type": "function"
    },
    {
      "inputs": [],
      "name": "bossesToGenerate",
      "outputs": [
        {
          "internalType": "uint256",
          "name": "",
          "type": "uint256"
        }
      ],
      "stateMutability": "view",
      "type": "function"
    },
    {
      "inputs": [
        {
          "internalType": "address",
          "name": "",
          "type": "address"
        }
      ],
      "name": "characters",
      "outputs": [
        {
          "internalType": "uint256",
          "name": "hp",
          "type": "uint256"
        },
        {
          "internalType": "uint256",
          "name": "damage",
          "type": "uint256"
        },
        {
          "internalType": "uint256",
          "name": "xp",
          "type": "uint256"
        },
        {
          "internalType": "uint256",
          "name": "lastFireballAttack",
          "type": "uint256"
        },
        {
          "internalType": "bool",
          "name": "active",
          "type": "bool"
        },
        {
          "internalType": "uint256",
          "name": "height",
          "type": "uint256"
        }
      ],
      "stateMutability": "view",
      "type": "function"
    },
    {
      "inputs": [],
      "name": "charactersCount",
      "outputs": [
        {
          "internalType": "uint256",
          "name": "",
          "type": "uint256"
        }
      ],
      "stateMutability": "view",
      "type": "function"
    },
    {
      "inputs": [
        {
          "internalType": "uint256",
          "name": "boss",
          "type": "uint256"
        }
      ],
      "name": "claimRewards",
      "outputs": [],
      "stateMutability": "nonpayable",
      "type": "function"
    },
    {
      "inputs": [
        {
          "internalType": "address",
          "name": "",
          "type": "address"
        },
        {
          "internalType": "uint256",
          "name": "",
          "type": "uint256"
        }
      ],
      "name": "claimableExperience",
      "outputs": [
        {
          "internalType": "uint256",
          "name": "",
          "type": "uint256"
        }
      ],
      "stateMutability": "view",
      "type": "function"
    },
    {
      "inputs": [],
      "name": "cryptoPunks",
      "outputs": [
        {
          "internalType": "contract CryptopunksDataInterface",
          "name": "",
          "type": "address"
        }
      ],
      "stateMutability": "view",
      "type": "function"
    },
    {
      "inputs": [],
      "name": "currentBoss",
      "outputs": [
        {
          "internalType": "uint256",
          "name": "",
          "type": "uint256"
        }
      ],
      "stateMutability": "view",
      "type": "function"
    },
    {
      "inputs": [],
      "name": "fireballAttack",
      "outputs": [],
      "stateMutability": "nonpayable",
      "type": "function"
    },
    {
      "inputs": [],
      "name": "fireballDamagePoints",
      "outputs": [
        {
          "internalType": "uint256",
          "name": "",
          "type": "uint256"
        }
      ],
      "stateMutability": "view",
      "type": "function"
    },
    {
      "inputs": [],
      "name": "generateCharacter",
      "outputs": [],
      "stateMutability": "nonpayable",
      "type": "function"
    },
    {
      "inputs": [],
      "name": "getBossesCount",
      "outputs": [
        {
          "internalType": "uint256",
          "name": "",
          "type": "uint256"
        }
      ],
      "stateMutability": "view",
      "type": "function"
    },
    {
      "inputs": [
        {
          "internalType": "address",
          "name": "characterToHeal",
          "type": "address"
        }
      ],
      "name": "healCharacter",
      "outputs": [],
      "stateMutability": "nonpayable",
      "type": "function"
    },
    {
      "inputs": [],
      "name": "healthPoints",
      "outputs": [
        {
          "internalType": "uint256",
          "name": "",
          "type": "uint256"
        }
      ],
      "stateMutability": "view",
      "type": "function"
    },
    {
      "inputs": [],
      "name": "invokeBoss",
      "outputs": [],
      "stateMutability": "nonpayable",
      "type": "function"
    },
    {
      "inputs": [
        {
          "internalType": "uint256",
          "name": "bossIndex",
          "type": "uint256"
        }
      ],
      "name": "isBossAlive",
      "outputs": [
        {
          "internalType": "bool",
          "name": "",
          "type": "bool"
        }
      ],
      "stateMutability": "view",
      "type": "function"
    },
    {
      "inputs": [
        {
          "internalType": "address",
          "name": "character",
          "type": "address"
        }
      ],
      "name": "isCharacterAlive",
      "outputs": [
        {
          "internalType": "bool",
          "name": "",
          "type": "bool"
        }
      ],
      "stateMutability": "view",
      "type": "function"
    },
    {
      "inputs": [],
      "name": "isCurrentBossAlive",
      "outputs": [
        {
          "internalType": "bool",
          "name": "",
          "type": "bool"
        }
      ],
      "stateMutability": "view",
      "type": "function"
    },
    {
      "inputs": [
        {
          "internalType": "address",
          "name": "forwarder",
          "type": "address"
        }
      ],
      "name": "isTrustedForwarder",
      "outputs": [
        {
          "internalType": "bool",
          "name": "",
          "type": "bool"
        }
      ],
      "stateMutability": "view",
      "type": "function"
    },
    {
      "inputs": [],
      "name": "maxBosses",
      "outputs": [
        {
          "internalType": "uint256",
          "name": "",
          "type": "uint256"
        }
      ],
      "stateMutability": "view",
      "type": "function"
    },
    {
      "inputs": [],
      "name": "maxHealthPoints",
      "outputs": [
        {
          "internalType": "uint256",
          "name": "",
          "type": "uint256"
        }
      ],
      "stateMutability": "view",
      "type": "function"
    },
    {
      "inputs": [],
      "name": "owner",
      "outputs": [
        {
          "internalType": "address",
          "name": "",
          "type": "address"
        }
      ],
      "stateMutability": "view",
      "type": "function"
    },
    {
      "inputs": [
        {
          "internalType": "uint256",
          "name": "bossHealthPoints",
          "type": "uint256"
        }
      ],
      "name": "populateBosses",
      "outputs": [],
      "stateMutability": "nonpayable",
      "type": "function"
    },
    {
      "inputs": [
        {
          "internalType": "uint16",
          "name": "index",
          "type": "uint16"
        }
      ],
      "name": "punkAttributes",
      "outputs": [
        {
          "internalType": "string",
          "name": "text",
          "type": "string"
        }
      ],
      "stateMutability": "view",
      "type": "function"
    },
    {
      "inputs": [
        {
          "internalType": "uint16",
          "name": "index",
          "type": "uint16"
        }
      ],
      "name": "punkImage",
      "outputs": [
        {
          "internalType": "bytes",
          "name": "",
          "type": "bytes"
        }
      ],
      "stateMutability": "view",
      "type": "function"
    },
    {
      "inputs": [
        {
          "internalType": "uint16",
          "name": "index",
          "type": "uint16"
        }
      ],
      "name": "punkImageSvg",
      "outputs": [
        {
          "internalType": "string",
          "name": "svg",
          "type": "string"
        }
      ],
      "stateMutability": "view",
      "type": "function"
    },
    {
      "inputs": [
        {
          "internalType": "uint256",
          "name": "requestId",
          "type": "uint256"
        },
        {
          "internalType": "uint256[]",
          "name": "randomWords",
          "type": "uint256[]"
        }
      ],
      "name": "rawFulfillRandomWords",
      "outputs": [],
      "stateMutability": "nonpayable",
      "type": "function"
    },
    {
      "inputs": [],
      "name": "regularAttack",
      "outputs": [],
      "stateMutability": "nonpayable",
      "type": "function"
    },
    {
      "inputs": [],
      "name": "regularDamagePoints",
      "outputs": [
        {
          "internalType": "uint256",
          "name": "",
          "type": "uint256"
        }
      ],
      "stateMutability": "view",
      "type": "function"
    },
    {
      "inputs": [],
      "name": "rewardNft",
      "outputs": [
        {
          "internalType": "contract IRewardNft",
          "name": "",
          "type": "address"
        }
      ],
      "stateMutability": "view",
      "type": "function"
    },
    {
      "inputs": [
        {
          "internalType": "uint256",
          "name": "",
          "type": "uint256"
        }
      ],
      "name": "s_requests",
      "outputs": [
        {
          "internalType": "bool",
          "name": "fulfilled",
          "type": "bool"
        },
        {
          "internalType": "bool",
          "name": "exists",
          "type": "bool"
        },
        {
          "internalType": "address",
          "name": "sender",
          "type": "address"
        }
      ],
      "stateMutability": "view",
      "type": "function"
    },
    {
      "inputs": [
        {
          "internalType": "uint256",
          "name": "_fireballDamagePoints",
          "type": "uint256"
        }
      ],
      "name": "setFireballDamagePoints",
      "outputs": [],
      "stateMutability": "nonpayable",
      "type": "function"
    },
    {
      "inputs": [
        {
          "internalType": "uint256",
          "name": "_regularDamagePoints",
          "type": "uint256"
        }
      ],
      "name": "setRegularDamagePoints",
      "outputs": [],
      "stateMutability": "nonpayable",
      "type": "function"
    },
    {
      "inputs": [
        {
          "internalType": "address",
          "name": "to",
          "type": "address"
        }
      ],
      "name": "transferOwnership",
      "outputs": [],
      "stateMutability": "nonpayable",
      "type": "function"
    },
    {
      "inputs": [],
      "name": "vrfKeyHash",
      "outputs": [
        {
          "internalType": "bytes32",
          "name": "",
          "type": "bytes32"
        }
      ],
      "stateMutability": "view",
      "type": "function"
    },
    {
      "inputs": [],
      "name": "xpToken",
      "outputs": [
        {
          "internalType": "contract IERC20",
          "name": "",
          "type": "address"
        }
      ],
      "stateMutability": "view",
      "type": "function"
    }
  ],
  "transactionHash": "0xf94e3c28fbd320c700b05f359d3ee621e3649938886c733fc82dfda9121b556f",
  "args": [
    "0xF0Fc6F4242CfB677a5ba5FdD342922ee83f6C7E2",
    "0xCD054591d99A15384E4e097CB009aDcAe62fe924",
    "0x5607A9b8605bF876802a40051B5bbc63B6F623a1",
    "0xF0Fc6F4242CfB677a5ba5FdD342922ee83f6C7E2",
    "0xf6D7a3A7D81493a3A109cD488d0a077bbCB68dd5",
    1
  ],
  "numDeployments": 1,
  "solcInputHash": "c98351e54fc982d6c8e7eafceb408619",
  "bytecode": "0x60c060405262030d40600560146101000a81548163ffffffff021916908363ffffffff1602179055507f4b09e658ed251bcafeebbc69400383d49f344ace09b9576fe248bb02c003fe9f60001b600d553480156200005c57600080fd5b50604051620048b9380380620048b983398181016040528101906200008291906200069a565b620000926200036060201b60201c565b80600084868073ffffffffffffffffffffffffffffffffffffffff1660808173ffffffffffffffffffffffffffffffffffffffff1681525050508073ffffffffffffffffffffffffffffffffffffffff1660a08173ffffffffffffffffffffffffffffffffffffffff168152505050600073ffffffffffffffffffffffffffffffffffffffff168273ffffffffffffffffffffffffffffffffffffffff16141562000174576040517f08c379a00000000000000000000000000000000000000000000000000000000081526004016200016b9062000797565b60405180910390fd5b816000806101000a81548173ffffffffffffffffffffffffffffffffffffffff021916908373ffffffffffffffffffffffffffffffffffffffff160217905550600073ffffffffffffffffffffffffffffffffffffffff168173ffffffffffffffffffffffffffffffffffffffff1614620001fb57620001fa81620003aa60201b60201c565b5b50505060646008819055506103e86009819055506005600a81905550600a600b8190555083600460006101000a81548173ffffffffffffffffffffffffffffffffffffffff021916908373ffffffffffffffffffffffffffffffffffffffff16021790555085600360006101000a81548173ffffffffffffffffffffffffffffffffffffffff021916908373ffffffffffffffffffffffffffffffffffffffff16021790555084600560006101000a81548173ffffffffffffffffffffffffffffffffffffffff021916908373ffffffffffffffffffffffffffffffffffffffff160217905550600a600c8190555080600560186101000a81548167ffffffffffffffff021916908367ffffffffffffffff16021790555081600260006101000a81548173ffffffffffffffffffffffffffffffffffffffff021916908373ffffffffffffffffffffffffffffffffffffffff1602179055505050505050506200082b565b60006200037333620004da60201b60201c565b156200038957601436033560601c9050620003a6565b6200039e6200051460201b62001cd61760201c565b9050620003a7565b5b90565b3373ffffffffffffffffffffffffffffffffffffffff168173ffffffffffffffffffffffffffffffffffffffff1614156200041c576040517f08c379a0000000000000000000000000000000000000000000000000000000008152600401620004139062000809565b60405180910390fd5b80600160006101000a81548173ffffffffffffffffffffffffffffffffffffffff021916908373ffffffffffffffffffffffffffffffffffffffff1602179055508073ffffffffffffffffffffffffffffffffffffffff1660008054906101000a900473ffffffffffffffffffffffffffffffffffffffff1673ffffffffffffffffffffffffffffffffffffffff167fed8889f560326eb138920d842192f0eb3dd22b4f139c87a2c57538e05bae127860405160405180910390a350565b600060805173ffffffffffffffffffffffffffffffffffffffff168273ffffffffffffffffffffffffffffffffffffffff16149050919050565b600033905090565b600080fd5b600073ffffffffffffffffffffffffffffffffffffffff82169050919050565b60006200054e8262000521565b9050919050565b6000620005628262000541565b9050919050565b620005748162000555565b81146200058057600080fd5b50565b600081519050620005948162000569565b92915050565b6000620005a78262000541565b9050919050565b620005b9816200059a565b8114620005c557600080fd5b50565b600081519050620005d981620005ae565b92915050565b620005ea8162000541565b8114620005f657600080fd5b50565b6000815190506200060a81620005df565b92915050565b60006200061d8262000541565b9050919050565b6200062f8162000610565b81146200063b57600080fd5b50565b6000815190506200064f8162000624565b92915050565b600067ffffffffffffffff82169050919050565b620006748162000655565b81146200068057600080fd5b50565b600081519050620006948162000669565b92915050565b60008060008060008060c08789031215620006ba57620006b96200051c565b5b6000620006ca89828a0162000583565b9650506020620006dd89828a01620005c8565b9550506040620006f089828a01620005f9565b94505060606200070389828a016200063e565b93505060806200071689828a01620005f9565b92505060a06200072989828a0162000683565b9150509295509295509295565b600082825260208201905092915050565b7f43616e6e6f7420736574206f776e657220746f207a65726f0000000000000000600082015250565b60006200077f60188362000736565b91506200078c8262000747565b602082019050919050565b60006020820190508181036000830152620007b28162000770565b9050919050565b7f43616e6e6f74207472616e7366657220746f2073656c66000000000000000000600082015250565b6000620007f160178362000736565b9150620007fe82620007b9565b602082019050919050565b600060208201905081810360008301526200082481620007e2565b9050919050565b60805160a0516140616200085860003960008181610bbc0152610c1001526000610e0901526140616000f3fe608060405234801561001057600080fd5b50600436106102325760003560e01c806379ba509711610130578063a168fa89116100b8578063d409f2491161007c578063d409f24914610666578063d87b67c914610682578063e89dde4f146106a0578063eb7ee2a7146106be578063f2fde38b146106dc57610232565b8063a168fa89146105be578063a561b7d4146105f0578063ae5014b1146105fa578063b2a16d7114610618578063d3a7036c1461063657610232565b8063927d676b116100ff578063927d676b1461052757806397c2114f1461054357806398e1df07146105785780639b11a167146105965780639e9aa73c146105a057610232565b806379ba5097146104d7578063856f8c35146104e15780638da5cb5b146104ff57806391ef72451461051d57610232565b80634184f651116101be57806366143a541161018257806366143a5414610431578063729b7b5b1461044f57806374beb0471461046d578063751f73001461049d57806376dfe297146104a757610232565b80634184f65114610379578063424a513114610397578063572b6c05146103c75780635d863f80146103f75780636164264d1461041357610232565b80631a3c0408116102055780631a3c0408146102bd5780631fe543e3146102db578063204597e0146102f75780633b2bcbf11461032b5780633e5e0a961461034957610232565b8063041d443e146102375780630962ef79146102555780631826c9181461027157806319e6270b146102a1575b600080fd5b61023f6106f8565b60405161024c91906129c7565b60405180910390f35b61026f600480360381019061026a9190612a2c565b6106fe565b005b61028b60048036038101906102869190612ab7565b610b52565b6040516102989190612aff565b60405180910390f35b6102bb60048036038101906102b69190612a2c565b610ba2565b005b6102c5610bb4565b6040516102d29190612b29565b60405180910390f35b6102f560048036038101906102f09190612c9d565b610bba565b005b610311600480360381019061030c9190612a2c565b610c7a565b604051610322959493929190612d16565b60405180910390f35b610333610cdb565b6040516103409190612dc8565b60405180910390f35b610363600480360381019061035e9190612e0f565b610d01565b6040516103709190612ec4565b60405180910390f35b610381610dba565b60405161038e9190612f07565b60405180910390f35b6103b160048036038101906103ac9190612f22565b610de0565b6040516103be9190612b29565b60405180910390f35b6103e160048036038101906103dc9190612ab7565b610e05565b6040516103ee9190612aff565b60405180910390f35b610411600480360381019061040c9190612ab7565b610e5d565b005b61041b61106f565b6040516104289190612b29565b60405180910390f35b610439611075565b6040516104469190612b29565b60405180910390f35b61045761107b565b6040516104649190612b29565b60405180910390f35b61048760048036038101906104829190612e0f565b611081565b6040516104949190612fb7565b60405180910390f35b6104a561113a565b005b6104c160048036038101906104bc9190612e0f565b6113bf565b6040516104ce9190612fb7565b60405180910390f35b6104df611478565b005b6104e961160d565b6040516104f69190612b29565b60405180910390f35b610507611613565b6040516105149190612fe8565b60405180910390f35b61052561163c565b005b610541600480360381019061053c9190612a2c565b61175b565b005b61055d60048036038101906105589190612ab7565b61196d565b60405161056f96959493929190613003565b60405180910390f35b6105806119b6565b60405161058d9190612b29565b60405180910390f35b61059e6119bc565b005b6105a8611ad9565b6040516105b59190612aff565b60405180910390f35b6105d860048036038101906105d39190612a2c565b611b0c565b6040516105e793929190613064565b60405180910390f35b6105f8611b70565b005b610602611c18565b60405161060f91906130bc565b60405180910390f35b610620611c3e565b60405161062d9190612b29565b60405180910390f35b610650600480360381019061064b9190612a2c565b611c44565b60405161065d9190612aff565b60405180910390f35b610680600480360381019061067b9190612a2c565b611c77565b005b61068a611c89565b6040516106979190612b29565b60405180910390f35b6106a8611c96565b6040516106b59190612b29565b60405180910390f35b6106c6611c9c565b6040516106d391906130f8565b60405180910390f35b6106f660048036038101906106f19190612ab7565b611cc2565b005b600d5481565b6000151561072c600e838154811061071957610718613113565b5b9060005260206000209060040201611cde565b15151461076e576040517f08c379a00000000000000000000000000000000000000000000000000000000081526004016107659061318e565b60405180910390fd5b60006010600061077c611cf2565b73ffffffffffffffffffffffffffffffffffffffff1673ffffffffffffffffffffffffffffffffffffffff16815260200190815260200160002060008381526020019081526020016000205411610808576040517f08c379a00000000000000000000000000000000000000000000000000000000081526004016107ff90613220565b60405180910390fd5b600060106000610816611cf2565b73ffffffffffffffffffffffffffffffffffffffff1673ffffffffffffffffffffffffffffffffffffffff1681526020019081526020016000206000838152602001908152602001600020549050600060106000610872611cf2565b73ffffffffffffffffffffffffffffffffffffffff1673ffffffffffffffffffffffffffffffffffffffff168152602001908152602001600020600084815260200190815260200160002081905550600360009054906101000a900473ffffffffffffffffffffffffffffffffffffffff1673ffffffffffffffffffffffffffffffffffffffff1663a9059cbb610907611cf2565b836040518363ffffffff1660e01b8152600401610925929190613240565b602060405180830381600087803b15801561093f57600080fd5b505af1158015610953573d6000803e3d6000fd5b505050506040513d601f19601f820116820180604052508101906109779190613295565b506000600560009054906101000a900473ffffffffffffffffffffffffffffffffffffffff1673ffffffffffffffffffffffffffffffffffffffff1663d0def5216109c0611cf2565b600460009054906101000a900473ffffffffffffffffffffffffffffffffffffffff1673ffffffffffffffffffffffffffffffffffffffff166374beb047600e8881548110610a1257610a11613113565b5b906000526020600020906004020160030160009054906101000a900461ffff166040518263ffffffff1660e01b8152600401610a4e91906132c2565b60006040518083038186803b158015610a6657600080fd5b505afa158015610a7a573d6000803e3d6000fd5b505050506040513d6000823e3d601f19601f82011682018060405250810190610aa39190613383565b6040518363ffffffff1660e01b8152600401610ac09291906133cc565b602060405180830381600087803b158015610ada57600080fd5b505af1158015610aee573d6000803e3d6000fd5b505050506040513d601f19601f82011682018060405250810190610b129190613411565b90507f38be9b012e428704c0fb2b81dfd53444b76ac4cd45c46cfd2d661f73d97cf47b8282604051610b4592919061343e565b60405180910390a1505050565b6000610b9b600f60008473ffffffffffffffffffffffffffffffffffffffff1673ffffffffffffffffffffffffffffffffffffffff168152602001908152602001600020611d24565b9050919050565b610baa611d38565b80600a8190555050565b600a5481565b7f000000000000000000000000000000000000000000000000000000000000000073ffffffffffffffffffffffffffffffffffffffff163373ffffffffffffffffffffffffffffffffffffffff1614610c6c57337f00000000000000000000000000000000000000000000000000000000000000006040517f1cf993f4000000000000000000000000000000000000000000000000000000008152600401610c63929190613467565b60405180910390fd5b610c768282611dc8565b5050565b600e8181548110610c8a57600080fd5b90600052602060002090600402016000915090508060000154908060010154908060020154908060030160009054906101000a900461ffff16908060030160029054906101000a900460ff16905085565b600260009054906101000a900473ffffffffffffffffffffffffffffffffffffffff1681565b6060600460009054906101000a900473ffffffffffffffffffffffffffffffffffffffff1673ffffffffffffffffffffffffffffffffffffffff16633e5e0a96836040518263ffffffff1660e01b8152600401610d5e91906132c2565b60006040518083038186803b158015610d7657600080fd5b505afa158015610d8a573d6000803e3d6000fd5b505050506040513d6000823e3d601f19601f82011682018060405250810190610db39190613531565b9050919050565b600560009054906101000a900473ffffffffffffffffffffffffffffffffffffffff1681565b6010602052816000526040600020602052806000526040600020600091509150505481565b60007f000000000000000000000000000000000000000000000000000000000000000073ffffffffffffffffffffffffffffffffffffffff168273ffffffffffffffffffffffffffffffffffffffff16149050919050565b610eab600f6000610e6c611cf2565b73ffffffffffffffffffffffffffffffffffffffff1673ffffffffffffffffffffffffffffffffffffffff168152602001908152602001600020611d24565b610eea576040517f08c379a0000000000000000000000000000000000000000000000000000000008152600401610ee1906135ec565b60405180910390fd5b8073ffffffffffffffffffffffffffffffffffffffff16610f09611cf2565b73ffffffffffffffffffffffffffffffffffffffff161415610f60576040517f08c379a0000000000000000000000000000000000000000000000000000000008152600401610f5790613658565b60405180910390fd5b610fae600f6000610f6f611cf2565b73ffffffffffffffffffffffffffffffffffffffff1673ffffffffffffffffffffffffffffffffffffffff168152602001908152602001600020611f32565b610fed576040517f08c379a0000000000000000000000000000000000000000000000000000000008152600401610fe4906136ea565b60405180910390fd5b6000600f60008373ffffffffffffffffffffffffffffffffffffffff1673ffffffffffffffffffffffffffffffffffffffff168152602001908152602001600020600101819055507f3803c3903ee0466ce000ef1152b8f9cb5026276759586f63ce3e28a3a31b94af816040516110649190612fe8565b60405180910390a150565b60075481565b600b5481565b60095481565b6060600460009054906101000a900473ffffffffffffffffffffffffffffffffffffffff1673ffffffffffffffffffffffffffffffffffffffff166374beb047836040518263ffffffff1660e01b81526004016110de91906132c2565b60006040518083038186803b1580156110f657600080fd5b505afa15801561110a573d6000803e3d6000fd5b505050506040513d6000823e3d601f19601f820116820180604052508101906111339190613383565b9050919050565b60011515600e6006548154811061115457611153613113565b5b906000526020600020906004020160030160029054906101000a900460ff161515146111b5576040517f08c379a00000000000000000000000000000000000000000000000000000000081526004016111ac90613756565b60405180910390fd5b611203600f60006111c4611cf2565b73ffffffffffffffffffffffffffffffffffffffff1673ffffffffffffffffffffffffffffffffffffffff168152602001908152602001600020611d24565b611242576040517f08c379a0000000000000000000000000000000000000000000000000000000008152600401611239906137e8565b60405180910390fd5b611290600f6000611251611cf2565b73ffffffffffffffffffffffffffffffffffffffff1673ffffffffffffffffffffffffffffffffffffffff168152602001908152602001600020611f54565b6112cf576040517f08c379a00000000000000000000000000000000000000000000000000000000081526004016112c69061387a565b60405180910390fd5b61131d600f60006112de611cf2565b73ffffffffffffffffffffffffffffffffffffffff1673ffffffffffffffffffffffffffffffffffffffff168152602001908152602001600020611f8c565b61135c576040517f08c379a00000000000000000000000000000000000000000000000000000000081526004016113539061390c565b60405180910390fd5b42600f6000611369611cf2565b73ffffffffffffffffffffffffffffffffffffffff1673ffffffffffffffffffffffffffffffffffffffff168152602001908152602001600020600301819055506113bd6113b5611cf2565b600b54611fab565b565b6060600460009054906101000a900473ffffffffffffffffffffffffffffffffffffffff1673ffffffffffffffffffffffffffffffffffffffff166376dfe297836040518263ffffffff1660e01b815260040161141c91906132c2565b60006040518083038186803b15801561143457600080fd5b505afa158015611448573d6000803e3d6000fd5b505050506040513d6000823e3d601f19601f820116820180604052508101906114719190613383565b9050919050565b600160009054906101000a900473ffffffffffffffffffffffffffffffffffffffff1673ffffffffffffffffffffffffffffffffffffffff163373ffffffffffffffffffffffffffffffffffffffff1614611508576040517f08c379a00000000000000000000000000000000000000000000000000000000081526004016114ff90613978565b60405180910390fd5b60008060009054906101000a900473ffffffffffffffffffffffffffffffffffffffff169050336000806101000a81548173ffffffffffffffffffffffffffffffffffffffff021916908373ffffffffffffffffffffffffffffffffffffffff1602179055506000600160006101000a81548173ffffffffffffffffffffffffffffffffffffffff021916908373ffffffffffffffffffffffffffffffffffffffff1602179055503373ffffffffffffffffffffffffffffffffffffffff168173ffffffffffffffffffffffffffffffffffffffff167f8be0079c531659141344cd1fd0a4f28419497f9722a3daafe3b4186f6b6457e060405160405180910390a350565b60065481565b60008060009054906101000a900473ffffffffffffffffffffffffffffffffffffffff16905090565b611644611d38565b60001515600e6006548154811061165e5761165d613113565b5b906000526020600020906004020160030160029054906101000a900460ff161515146116bf576040517f08c379a00000000000000000000000000000000000000000000000000000000081526004016116b690613a0a565b60405180910390fd5b6000600654146116e0576006600081546116d890613a59565b919050819055505b6001600e600654815481106116f8576116f7613113565b5b906000526020600020906004020160030160026101000a81548160ff0219169083151502179055507fa8f8257fec178e3adbffc01c4232c915a2b45845892a64de5c4c7eceb176d3526006546040516117519190612b29565b60405180910390a1565b611763611d38565b612710600e80549050106117ac576040517f08c379a00000000000000000000000000000000000000000000000000000000081526004016117a390613aee565b60405180910390fd5b60085481101580156117c057506009548111155b6117ff576040517f08c379a00000000000000000000000000000000000000000000000000000000081526004016117f690613b5a565b60405180910390fd5b6000600c549050600c54600e8054905061271061181c9190613b7a565b101561183857600e805490506127106118359190613b7a565b90505b6000600e80549050905060008190505b82826118549190613bae565b81101561192b57600e6040518060a00160405280868152602001600081526020018681526020018361ffff16815260200160001515815250908060018154018082558091505060019003906000526020600020906004020160009091909190915060008201518160000155602082015181600101556040820151816002015560608201518160030160006101000a81548161ffff021916908361ffff16021790555060808201518160030160026101000a81548160ff0219169083151502179055505050808061192390613a59565b915050611848565b507fafc6d9efdab1dd5d7b8cd77a15dad5fd1b723684e4b254c2156218590ce56047600e805490506040516119609190612b29565b60405180910390a1505050565b600f6020528060005260406000206000915090508060000154908060010154908060020154908060030154908060040160009054906101000a900460ff16908060050154905086565b600c5481565b60011515600e600654815481106119d6576119d5613113565b5b906000526020600020906004020160030160029054906101000a900460ff16151514611a37576040517f08c379a0000000000000000000000000000000000000000000000000000000008152600401611a2e90613756565b60405180910390fd5b611a85600f6000611a46611cf2565b73ffffffffffffffffffffffffffffffffffffffff1673ffffffffffffffffffffffffffffffffffffffff168152602001908152602001600020611d24565b611ac4576040517f08c379a0000000000000000000000000000000000000000000000000000000008152600401611abb906137e8565b60405180910390fd5b611ad7611acf611cf2565b600a54611fab565b565b6000611b07600e60065481548110611af457611af3613113565b5b9060005260206000209060040201611cde565b905090565b60116020528060005260406000206000915090508060000160009054906101000a900460ff16908060000160019054906101000a900460ff16908060020160009054906101000a900473ffffffffffffffffffffffffffffffffffffffff16905083565b60001515600f6000611b80611cf2565b73ffffffffffffffffffffffffffffffffffffffff1673ffffffffffffffffffffffffffffffffffffffff16815260200190815260200160002060040160009054906101000a900460ff16151514611c0d576040517f08c379a0000000000000000000000000000000000000000000000000000000008152600401611c0490613c76565b60405180910390fd5b611c1561236f565b50565b600360009054906101000a900473ffffffffffffffffffffffffffffffffffffffff1681565b60085481565b6000611c70600e8381548110611c5d57611c5c613113565b5b9060005260206000209060040201611cde565b9050919050565b611c7f611d38565b80600b8190555050565b6000600e80549050905090565b61271081565b600460009054906101000a900473ffffffffffffffffffffffffffffffffffffffff1681565b611cca611d38565b611cd3816125d8565b50565b600033905090565b600081600101548260000154119050919050565b6000611cfd33610e05565b15611d1157601436033560601c9050611d20565b611d19611cd6565b9050611d21565b5b90565b600081600101548260000154119050919050565b60008054906101000a900473ffffffffffffffffffffffffffffffffffffffff1673ffffffffffffffffffffffffffffffffffffffff163373ffffffffffffffffffffffffffffffffffffffff1614611dc6576040517f08c379a0000000000000000000000000000000000000000000000000000000008152600401611dbd90613ce2565b60405180910390fd5b565b6011600083815260200190815260200160002060000160019054906101000a900460ff16611e2b576040517f08c379a0000000000000000000000000000000000000000000000000000000008152600401611e2290613d4e565b60405180910390fd5b60016011600084815260200190815260200160002060000160006101000a81548160ff02191690831515021790555080601160008481526020019081526020016000206001019080519060200190611e84929190612944565b50611ee081600081518110611e9c57611e9b613113565b5b60200260200101516011600085815260200190815260200160002060020160009054906101000a900473ffffffffffffffffffffffffffffffffffffffff16612705565b6001600754611eef9190613bae565b6007819055507f503df20b540cb151c1f9d21af3bdf1dc38d6f2022ff926a9cf33a33ab53511c18282604051611f26929190613e2c565b60405180910390a15050565b6000611f3d8261289f565b80611f4d5750611f4c82611f54565b5b9050919050565b6000600380811115611f6957611f68613e5c565b5b611f72836128d8565b6003811115611f8457611f83613e5c565b5b149050919050565b600042620151808360030154611fa29190613bae565b11159050919050565b6000600f60008473ffffffffffffffffffffffffffffffffffffffff1673ffffffffffffffffffffffffffffffffffffffff168152602001908152602001600020905081600e6006548154811061200557612004613113565b5b9060005260206000209060040201600101546120219190613bae565b600e6006548154811061203757612036613113565b5b90600052602060002090600402016001018190555081600f60008573ffffffffffffffffffffffffffffffffffffffff1673ffffffffffffffffffffffffffffffffffffffff1681526020019081526020016000206001015461209a9190613bae565b600f60008573ffffffffffffffffffffffffffffffffffffffff1673ffffffffffffffffffffffffffffffffffffffff1681526020019081526020016000206001018190555081600f60008573ffffffffffffffffffffffffffffffffffffffff1673ffffffffffffffffffffffffffffffffffffffff1681526020019081526020016000206002015461212e9190613bae565b600f60008573ffffffffffffffffffffffffffffffffffffffff1673ffffffffffffffffffffffffffffffffffffffff168152602001908152602001600020600201819055506000601060008573ffffffffffffffffffffffffffffffffffffffff1673ffffffffffffffffffffffffffffffffffffffff1681526020019081526020016000206000600654815260200190815260200160002054905082816121d79190613bae565b601060008673ffffffffffffffffffffffffffffffffffffffff1673ffffffffffffffffffffffffffffffffffffffff16815260200190815260200160002060006006548152602001908152602001600020819055506000151561223a83611d24565b1515141561224d57600082600201819055505b6000151561227d600e6006548154811061226a57612269613113565b5b9060005260206000209060040201611cde565b15151480156122925750612710600e80549050105b1561232e576000600e600654815481106122af576122ae613113565b5b906000526020600020906004020160030160026101000a81548160ff0219169083151502179055506006600081546122e690613a59565b919050819055506001600e6006548154811061230557612304613113565b5b906000526020600020906004020160030160026101000a81548160ff0219169083151502179055505b7feb969ba0672d08e80b57f75447c16c4b2ade50af42e7769b5ba2c95ae44823a282600201546040516123619190612b29565b60405180910390a150505050565b6000600260009054906101000a900473ffffffffffffffffffffffffffffffffffffffff1673ffffffffffffffffffffffffffffffffffffffff16635d3b1d30600d54600560189054906101000a900467ffffffffffffffff166003600560149054906101000a900463ffffffff1660016040518663ffffffff1660e01b8152600401612400959493929190613f43565b602060405180830381600087803b15801561241a57600080fd5b505af115801561242e573d6000803e3d6000fd5b505050506040513d601f19601f820116820180604052508101906124529190613411565b90506040518060800160405280600015158152602001600115158152602001600067ffffffffffffffff81111561248c5761248b612b5a565b5b6040519080825280602002602001820160405280156124ba5781602001602082028036833780820191505090505b5081526020016124c8611cf2565b73ffffffffffffffffffffffffffffffffffffffff168152506011600083815260200190815260200160002060008201518160000160006101000a81548160ff02191690831515021790555060208201518160000160016101000a81548160ff0219169083151502179055506040820151816001019080519060200190612550929190612944565b5060608201518160020160006101000a81548173ffffffffffffffffffffffffffffffffffffffff021916908373ffffffffffffffffffffffffffffffffffffffff1602179055509050507fcc58b13ad3eab50626c6a6300b1d139cd6ebb1688a7cced9461c2f7e762665ee8160016040516125cd929190613f96565b60405180910390a190565b3373ffffffffffffffffffffffffffffffffffffffff168173ffffffffffffffffffffffffffffffffffffffff161415612647576040517f08c379a000000000000000000000000000000000000000000000000000000000815260040161263e9061400b565b60405180910390fd5b80600160006101000a81548173ffffffffffffffffffffffffffffffffffffffff021916908373ffffffffffffffffffffffffffffffffffffffff1602179055508073ffffffffffffffffffffffffffffffffffffffff1660008054906101000a900473ffffffffffffffffffffffffffffffffffffffff1673ffffffffffffffffffffffffffffffffffffffff167fed8889f560326eb138920d842192f0eb3dd22b4f139c87a2c57538e05bae127860405160405180910390a350565b60001515600f60008373ffffffffffffffffffffffffffffffffffffffff1673ffffffffffffffffffffffffffffffffffffffff16815260200190815260200160002060040160009054906101000a900460ff1615151461279b576040517f08c379a000000000000000000000000000000000000000000000000000000000815260040161279290613c76565b60405180910390fd5b6040518060c00160405280600854815260200160008152602001600081526020016000815260200160011515815260200183815250600f60008373ffffffffffffffffffffffffffffffffffffffff1673ffffffffffffffffffffffffffffffffffffffff1681526020019081526020016000206000820151816000015560208201518160010155604082015181600201556060820151816003015560808201518160040160006101000a81548160ff02191690831515021790555060a082015181600501559050507ffa9ce889f3e2a0c3ccbe48fc014cbd7599b173a6ddcbec0c29a7f13aff617899826040516128939190612b29565b60405180910390a15050565b6000600260038111156128b5576128b4613e5c565b5b6128be836128d8565b60038111156128d0576128cf613e5c565b5b149050919050565b600060148260020154101580156128f3575060328260020154105b15612901576001905061293f565b603282600201541015801561291a575060648260020154105b15612928576002905061293f565b60648260020154111561293e576003905061293f565b5b919050565b828054828255906000526020600020908101928215612980579160200282015b8281111561297f578251825591602001919060010190612964565b5b50905061298d9190612991565b5090565b5b808211156129aa576000816000905550600101612992565b5090565b6000819050919050565b6129c1816129ae565b82525050565b60006020820190506129dc60008301846129b8565b92915050565b6000604051905090565b600080fd5b600080fd5b6000819050919050565b612a09816129f6565b8114612a1457600080fd5b50565b600081359050612a2681612a00565b92915050565b600060208284031215612a4257612a416129ec565b5b6000612a5084828501612a17565b91505092915050565b600073ffffffffffffffffffffffffffffffffffffffff82169050919050565b6000612a8482612a59565b9050919050565b612a9481612a79565b8114612a9f57600080fd5b50565b600081359050612ab181612a8b565b92915050565b600060208284031215612acd57612acc6129ec565b5b6000612adb84828501612aa2565b91505092915050565b60008115159050919050565b612af981612ae4565b82525050565b6000602082019050612b146000830184612af0565b92915050565b612b23816129f6565b82525050565b6000602082019050612b3e6000830184612b1a565b92915050565b600080fd5b6000601f19601f8301169050919050565b7f4e487b7100000000000000000000000000000000000000000000000000000000600052604160045260246000fd5b612b9282612b49565b810181811067ffffffffffffffff82111715612bb157612bb0612b5a565b5b80604052505050565b6000612bc46129e2565b9050612bd08282612b89565b919050565b600067ffffffffffffffff821115612bf057612bef612b5a565b5b602082029050602081019050919050565b600080fd5b6000612c19612c1484612bd5565b612bba565b90508083825260208201905060208402830185811115612c3c57612c3b612c01565b5b835b81811015612c655780612c518882612a17565b845260208401935050602081019050612c3e565b5050509392505050565b600082601f830112612c8457612c83612b44565b5b8135612c94848260208601612c06565b91505092915050565b60008060408385031215612cb457612cb36129ec565b5b6000612cc285828601612a17565b925050602083013567ffffffffffffffff811115612ce357612ce26129f1565b5b612cef85828601612c6f565b9150509250929050565b600061ffff82169050919050565b612d1081612cf9565b82525050565b600060a082019050612d2b6000830188612b1a565b612d386020830187612b1a565b612d456040830186612b1a565b612d526060830185612d07565b612d5f6080830184612af0565b9695505050505050565b6000819050919050565b6000612d8e612d89612d8484612a59565b612d69565b612a59565b9050919050565b6000612da082612d73565b9050919050565b6000612db282612d95565b9050919050565b612dc281612da7565b82525050565b6000602082019050612ddd6000830184612db9565b92915050565b612dec81612cf9565b8114612df757600080fd5b50565b600081359050612e0981612de3565b92915050565b600060208284031215612e2557612e246129ec565b5b6000612e3384828501612dfa565b91505092915050565b600081519050919050565b600082825260208201905092915050565b60005b83811015612e76578082015181840152602081019050612e5b565b83811115612e85576000848401525b50505050565b6000612e9682612e3c565b612ea08185612e47565b9350612eb0818560208601612e58565b612eb981612b49565b840191505092915050565b60006020820190508181036000830152612ede8184612e8b565b905092915050565b6000612ef182612d95565b9050919050565b612f0181612ee6565b82525050565b6000602082019050612f1c6000830184612ef8565b92915050565b60008060408385031215612f3957612f386129ec565b5b6000612f4785828601612aa2565b9250506020612f5885828601612a17565b9150509250929050565b600081519050919050565b600082825260208201905092915050565b6000612f8982612f62565b612f938185612f6d565b9350612fa3818560208601612e58565b612fac81612b49565b840191505092915050565b60006020820190508181036000830152612fd18184612f7e565b905092915050565b612fe281612a79565b82525050565b6000602082019050612ffd6000830184612fd9565b92915050565b600060c0820190506130186000830189612b1a565b6130256020830188612b1a565b6130326040830187612b1a565b61303f6060830186612b1a565b61304c6080830185612af0565b61305960a0830184612b1a565b979650505050505050565b60006060820190506130796000830186612af0565b6130866020830185612af0565b6130936040830184612fd9565b949350505050565b60006130a682612d95565b9050919050565b6130b68161309b565b82525050565b60006020820190506130d160008301846130ad565b92915050565b60006130e282612d95565b9050919050565b6130f2816130d7565b82525050565b600060208201905061310d60008301846130e9565b92915050565b7f4e487b7100000000000000000000000000000000000000000000000000000000600052603260045260246000fd5b7f426f7373206973206e6f74206465666561746564207965740000000000000000600082015250565b6000613178601883612f6d565b915061318382613142565b602082019050919050565b600060208201905081810360008301526131a78161316b565b9050919050565b7f596f7520646f206e6f74206861766520636c61696d61626c652065787065726960008201527f656e636500000000000000000000000000000000000000000000000000000000602082015250565b600061320a602483612f6d565b9150613215826131ae565b604082019050919050565b60006020820190508181036000830152613239816131fd565b9050919050565b60006040820190506132556000830185612fd9565b6132626020830184612b1a565b9392505050565b61327281612ae4565b811461327d57600080fd5b50565b60008151905061328f81613269565b92915050565b6000602082840312156132ab576132aa6129ec565b5b60006132b984828501613280565b91505092915050565b60006020820190506132d76000830184612d07565b92915050565b600080fd5b600067ffffffffffffffff8211156132fd576132fc612b5a565b5b61330682612b49565b9050602081019050919050565b6000613326613321846132e2565b612bba565b905082815260208101848484011115613342576133416132dd565b5b61334d848285612e58565b509392505050565b600082601f83011261336a57613369612b44565b5b815161337a848260208601613313565b91505092915050565b600060208284031215613399576133986129ec565b5b600082015167ffffffffffffffff8111156133b7576133b66129f1565b5b6133c384828501613355565b91505092915050565b60006040820190506133e16000830185612fd9565b81810360208301526133f38184612f7e565b90509392505050565b60008151905061340b81612a00565b92915050565b600060208284031215613427576134266129ec565b5b6000613435848285016133fc565b91505092915050565b60006040820190506134536000830185612b1a565b6134606020830184612b1a565b9392505050565b600060408201905061347c6000830185612fd9565b6134896020830184612fd9565b9392505050565b600067ffffffffffffffff8211156134ab576134aa612b5a565b5b6134b482612b49565b9050602081019050919050565b60006134d46134cf84613490565b612bba565b9050828152602081018484840111156134f0576134ef6132dd565b5b6134fb848285612e58565b509392505050565b600082601f83011261351857613517612b44565b5b81516135288482602086016134c1565b91505092915050565b600060208284031215613547576135466129ec565b5b600082015167ffffffffffffffff811115613565576135646129f1565b5b61357184828501613503565b91505092915050565b7f636861726163746572206973206e6f74206163746976652c2063616e6e6f742060008201527f6865616c00000000000000000000000000000000000000000000000000000000602082015250565b60006135d6602483612f6d565b91506135e18261357a565b604082019050919050565b60006020820190508181036000830152613605816135c9565b9050919050565b7f596f752063616e6e6f74206865616c20796f757273656c660000000000000000600082015250565b6000613642601883612f6d565b915061364d8261360c565b602082019050919050565b6000602082019050818103600083015261367181613635565b9050919050565b7f4f6e6c792061204368616d70696f6e206f72204d61737465722063616e20686560008201527f616c000000000000000000000000000000000000000000000000000000000000602082015250565b60006136d4602283612f6d565b91506136df82613678565b604082019050919050565b60006020820190508181036000830152613703816136c7565b9050919050565b7f4e6f20426f737320746f2061747461636b000000000000000000000000000000600082015250565b6000613740601183612f6d565b915061374b8261370a565b602082019050919050565b6000602082019050818103600083015261376f81613733565b9050919050565b7f436861726163746572206973206e6f74206163746976652c2063616e6e6f742060008201527f61747461636b0000000000000000000000000000000000000000000000000000602082015250565b60006137d2602683612f6d565b91506137dd82613776565b604082019050919050565b60006020820190508181036000830152613801816137c5565b9050919050565b7f4f6e6c792061204d617374657220284c6576656c2033292063616e206361737460008201527f206669726562616c6c0000000000000000000000000000000000000000000000602082015250565b6000613864602983612f6d565b915061386f82613808565b604082019050919050565b6000602082019050818103600083015261389381613857565b9050919050565b7f4d757374207761697420323420686f75727320746f206361737420666972656260008201527f616c6c0000000000000000000000000000000000000000000000000000000000602082015250565b60006138f6602383612f6d565b91506139018261389a565b604082019050919050565b60006020820190508181036000830152613925816138e9565b9050919050565b7f4d7573742062652070726f706f736564206f776e657200000000000000000000600082015250565b6000613962601683612f6d565b915061396d8261392c565b602082019050919050565b6000602082019050818103600083015261399181613955565b9050919050565b7f63616e6e6f7420696e766f6b6520626f73732c2063757272656e7420626f737360008201527f206973207374696c6c2061637469766500000000000000000000000000000000602082015250565b60006139f4603083612f6d565b91506139ff82613998565b604082019050919050565b60006020820190508181036000830152613a23816139e7565b9050919050565b7f4e487b7100000000000000000000000000000000000000000000000000000000600052601160045260246000fd5b6000613a64826129f6565b91507fffffffffffffffffffffffffffffffffffffffffffffffffffffffffffffffff821415613a9757613a96613a2a565b5b600182019050919050565b7f4d617820626f7373657320726561636865640000000000000000000000000000600082015250565b6000613ad8601283612f6d565b9150613ae382613aa2565b602082019050919050565b60006020820190508181036000830152613b0781613acb565b9050919050565b7f496e76616c6964206865616c746820706f696e74730000000000000000000000600082015250565b6000613b44601583612f6d565b9150613b4f82613b0e565b602082019050919050565b60006020820190508181036000830152613b7381613b37565b9050919050565b6000613b85826129f6565b9150613b90836129f6565b925082821015613ba357613ba2613a2a565b5b828203905092915050565b6000613bb9826129f6565b9150613bc4836129f6565b9250827fffffffffffffffffffffffffffffffffffffffffffffffffffffffffffffffff03821115613bf957613bf8613a2a565b5b828201905092915050565b7f4368617261637465722065786973747320666f7220746869732061646472657360008201527f7300000000000000000000000000000000000000000000000000000000000000602082015250565b6000613c60602183612f6d565b9150613c6b82613c04565b604082019050919050565b60006020820190508181036000830152613c8f81613c53565b9050919050565b7f4f6e6c792063616c6c61626c65206279206f776e657200000000000000000000600082015250565b6000613ccc601683612f6d565b9150613cd782613c96565b602082019050919050565b60006020820190508181036000830152613cfb81613cbf565b9050919050565b7f72657175657374206e6f7420666f756e64000000000000000000000000000000600082015250565b6000613d38601183612f6d565b9150613d4382613d02565b602082019050919050565b60006020820190508181036000830152613d6781613d2b565b9050919050565b600081519050919050565b600082825260208201905092915050565b6000819050602082019050919050565b613da3816129f6565b82525050565b6000613db58383613d9a565b60208301905092915050565b6000602082019050919050565b6000613dd982613d6e565b613de38185613d79565b9350613dee83613d8a565b8060005b83811015613e1f578151613e068882613da9565b9750613e1183613dc1565b925050600181019050613df2565b5085935050505092915050565b6000604082019050613e416000830185612b1a565b8181036020830152613e538184613dce565b90509392505050565b7f4e487b7100000000000000000000000000000000000000000000000000000000600052602160045260246000fd5b600067ffffffffffffffff82169050919050565b613ea881613e8b565b82525050565b6000819050919050565b6000613ed3613ece613ec984613eae565b612d69565b612cf9565b9050919050565b613ee381613eb8565b82525050565b600063ffffffff82169050919050565b613f0281613ee9565b82525050565b6000819050919050565b6000613f2d613f28613f2384613f08565b612d69565b613ee9565b9050919050565b613f3d81613f12565b82525050565b600060a082019050613f5860008301886129b8565b613f656020830187613e9f565b613f726040830186613eda565b613f7f6060830185613ef9565b613f8c6080830184613f34565b9695505050505050565b6000604082019050613fab6000830185612b1a565b613fb86020830184613f34565b9392505050565b7f43616e6e6f74207472616e7366657220746f2073656c66000000000000000000600082015250565b6000613ff5601783612f6d565b915061400082613fbf565b602082019050919050565b6000602082019050818103600083015261402481613fe8565b905091905056fea264697066735822122081b584422603452d5c448f9fde2279c2706ff99e7e0fd6c75146b607d500fbc364736f6c63430008090033",
  "devdoc": {
    "kind": "dev",
    "methods": {
      "claimRewards(uint256)": {
        "params": {
          "boss": "the boss which was attacked and killed  "
        }
      },
      "fireballAttack()": {
        "details": "executes a firball attack only callable by character with master or champion level"
      },
      "healCharacter(address)": {
        "params": {
          "characterToHeal": "address of the character to heal"
        }
      },
      "invokeBoss()": {
        "details": "used to initialize the currentBoss at the start of the games "
      },
      "populateBosses(uint256)": {
        "params": {
          "bossHealthPoints": "health points tp be assigned to the new bosses "
        }
      },
      "punkAttributes(uint16)": {
        "params": {
          "index": "the punk index, 0 <= index < 10000"
        }
      },
      "punkImageSvg(uint16)": {
        "params": {
          "index": "the punk index, 0 <= index < 10000"
        }
      }
    },
    "version": 1
  },
  "userdoc": {
    "kind": "user",
    "methods": {
      "acceptOwnership()": {
        "notice": "Allows an ownership transfer to be completed by the recipient."
      },
      "claimRewards(uint256)": {
        "notice": "called by characters to claim rewards they earned by participating in attacking a boss"
      },
      "healCharacter(address)": {
        "notice": "called by master or champion character to heal a dead character"
      },
      "invokeBoss()": {
        "notice": "loads a new currentBoss once the old boss is defeated. "
      },
      "owner()": {
        "notice": "Get the current owner"
      },
      "populateBosses(uint256)": {
        "notice": "cpopulated bosses"
      },
      "punkAttributes(uint16)": {
        "notice": "The Cryptopunk attributes for the given index. The attributes are a comma-separated list in UTF-8 string format. The first entry listed is not technically an attribute, but the \"head type\" of the Cryptopunk."
      },
      "punkImageSvg(uint16)": {
        "notice": "The Cryptopunk image for the given index, in SVG format. In the SVG, each \"pixel\" is represented as a 1x1 rectangle."
      },
      "regularAttack()": {
        "notice": "executes a regular attack"
      },
      "setFireballDamagePoints(uint256)": {
        "notice": "sets teh amount of damage caused by a fireball attack"
      },
      "setRegularDamagePoints(uint256)": {
        "notice": "sets teh amount of damage caused by a regular attack"
      },
      "transferOwnership(address)": {
        "notice": "Allows an owner to begin transferring ownership to a new address, pending."
      }
    },
    "version": 1
  },
  "storageLayout": {
    "storage": [
      {
        "astId": 27,
        "contract": "contracts/AttackOfTheClones.sol:AttackOfTheClones",
        "label": "s_owner",
        "offset": 0,
        "slot": "0",
        "type": "t_address"
      },
      {
        "astId": 29,
        "contract": "contracts/AttackOfTheClones.sol:AttackOfTheClones",
        "label": "s_pendingOwner",
        "offset": 0,
        "slot": "1",
        "type": "t_address"
      },
      {
        "astId": 4796,
        "contract": "contracts/AttackOfTheClones.sol:AttackOfTheClones",
        "label": "COORDINATOR",
        "offset": 0,
        "slot": "2",
        "type": "t_contract(VRFCoordinatorV2Interface)446"
      },
      {
        "astId": 4799,
        "contract": "contracts/AttackOfTheClones.sol:AttackOfTheClones",
        "label": "xpToken",
        "offset": 0,
        "slot": "3",
        "type": "t_contract(IERC20)2336"
      },
      {
        "astId": 4802,
        "contract": "contracts/AttackOfTheClones.sol:AttackOfTheClones",
        "label": "cryptoPunks",
        "offset": 0,
        "slot": "4",
        "type": "t_contract(CryptopunksDataInterface)5710"
      },
      {
        "astId": 4805,
        "contract": "contracts/AttackOfTheClones.sol:AttackOfTheClones",
        "label": "rewardNft",
        "offset": 0,
        "slot": "5",
        "type": "t_contract(IRewardNft)6012"
      },
      {
        "astId": 4808,
        "contract": "contracts/AttackOfTheClones.sol:AttackOfTheClones",
        "label": "callbackGasLimit",
        "offset": 20,
        "slot": "5",
        "type": "t_uint32"
      },
      {
        "astId": 4810,
        "contract": "contracts/AttackOfTheClones.sol:AttackOfTheClones",
        "label": "vrfSubscriptionId",
        "offset": 24,
        "slot": "5",
        "type": "t_uint64"
      },
      {
        "astId": 4812,
        "contract": "contracts/AttackOfTheClones.sol:AttackOfTheClones",
        "label": "currentBoss",
        "offset": 0,
        "slot": "6",
        "type": "t_uint256"
      },
      {
        "astId": 4814,
        "contract": "contracts/AttackOfTheClones.sol:AttackOfTheClones",
        "label": "charactersCount",
        "offset": 0,
        "slot": "7",
        "type": "t_uint256"
      },
      {
        "astId": 4819,
        "contract": "contracts/AttackOfTheClones.sol:AttackOfTheClones",
        "label": "healthPoints",
        "offset": 0,
        "slot": "8",
        "type": "t_uint256"
      },
      {
        "astId": 4821,
        "contract": "contracts/AttackOfTheClones.sol:AttackOfTheClones",
        "label": "maxHealthPoints",
        "offset": 0,
        "slot": "9",
        "type": "t_uint256"
      },
      {
        "astId": 4823,
        "contract": "contracts/AttackOfTheClones.sol:AttackOfTheClones",
        "label": "regularDamagePoints",
        "offset": 0,
        "slot": "10",
        "type": "t_uint256"
      },
      {
        "astId": 4825,
        "contract": "contracts/AttackOfTheClones.sol:AttackOfTheClones",
        "label": "fireballDamagePoints",
        "offset": 0,
        "slot": "11",
        "type": "t_uint256"
      },
      {
        "astId": 4827,
        "contract": "contracts/AttackOfTheClones.sol:AttackOfTheClones",
        "label": "bossesToGenerate",
        "offset": 0,
        "slot": "12",
        "type": "t_uint256"
      },
      {
        "astId": 4830,
        "contract": "contracts/AttackOfTheClones.sol:AttackOfTheClones",
        "label": "vrfKeyHash",
        "offset": 0,
        "slot": "13",
        "type": "t_bytes32"
      },
      {
        "astId": 4834,
        "contract": "contracts/AttackOfTheClones.sol:AttackOfTheClones",
        "label": "bosses",
        "offset": 0,
        "slot": "14",
        "type": "t_array(t_struct(Boss)5723_storage)dyn_storage"
      },
      {
        "astId": 4839,
        "contract": "contracts/AttackOfTheClones.sol:AttackOfTheClones",
        "label": "characters",
        "offset": 0,
        "slot": "15",
        "type": "t_mapping(t_address,t_struct(Character)5759_storage)"
      },
      {
        "astId": 4845,
        "contract": "contracts/AttackOfTheClones.sol:AttackOfTheClones",
        "label": "claimableExperience",
        "offset": 0,
        "slot": "16",
        "type": "t_mapping(t_address,t_mapping(t_uint256,t_uint256))"
      },
      {
        "astId": 4850,
        "contract": "contracts/AttackOfTheClones.sol:AttackOfTheClones",
        "label": "s_requests",
        "offset": 0,
        "slot": "17",
        "type": "t_mapping(t_uint256,t_struct(RequestStatus)4793_storage)"
      }
    ],
    "types": {
      "t_address": {
        "encoding": "inplace",
        "label": "address",
        "numberOfBytes": "20"
      },
      "t_array(t_struct(Boss)5723_storage)dyn_storage": {
        "base": "t_struct(Boss)5723_storage",
        "encoding": "dynamic_array",
        "label": "struct Boss[]",
        "numberOfBytes": "32"
      },
      "t_array(t_uint256)dyn_storage": {
        "base": "t_uint256",
        "encoding": "dynamic_array",
        "label": "uint256[]",
        "numberOfBytes": "32"
      },
      "t_bool": {
        "encoding": "inplace",
        "label": "bool",
        "numberOfBytes": "1"
      },
      "t_bytes32": {
        "encoding": "inplace",
        "label": "bytes32",
        "numberOfBytes": "32"
      },
      "t_contract(CryptopunksDataInterface)5710": {
        "encoding": "inplace",
        "label": "contract CryptopunksDataInterface",
        "numberOfBytes": "20"
      },
      "t_contract(IERC20)2336": {
        "encoding": "inplace",
        "label": "contract IERC20",
        "numberOfBytes": "20"
      },
      "t_contract(IRewardNft)6012": {
        "encoding": "inplace",
        "label": "contract IRewardNft",
        "numberOfBytes": "20"
      },
      "t_contract(VRFCoordinatorV2Interface)446": {
        "encoding": "inplace",
        "label": "contract VRFCoordinatorV2Interface",
        "numberOfBytes": "20"
      },
      "t_mapping(t_address,t_mapping(t_uint256,t_uint256))": {
        "encoding": "mapping",
        "key": "t_address",
        "label": "mapping(address => mapping(uint256 => uint256))",
        "numberOfBytes": "32",
        "value": "t_mapping(t_uint256,t_uint256)"
      },
      "t_mapping(t_address,t_struct(Character)5759_storage)": {
        "encoding": "mapping",
        "key": "t_address",
        "label": "mapping(address => struct Character)",
        "numberOfBytes": "32",
        "value": "t_struct(Character)5759_storage"
      },
      "t_mapping(t_uint256,t_struct(RequestStatus)4793_storage)": {
        "encoding": "mapping",
        "key": "t_uint256",
        "label": "mapping(uint256 => struct AttackOfTheClones.RequestStatus)",
        "numberOfBytes": "32",
        "value": "t_struct(RequestStatus)4793_storage"
      },
      "t_mapping(t_uint256,t_uint256)": {
        "encoding": "mapping",
        "key": "t_uint256",
        "label": "mapping(uint256 => uint256)",
        "numberOfBytes": "32",
        "value": "t_uint256"
      },
      "t_struct(Boss)5723_storage": {
        "encoding": "inplace",
        "label": "struct Boss",
        "members": [
          {
            "astId": 5714,
            "contract": "contracts/AttackOfTheClones.sol:AttackOfTheClones",
            "label": "hp",
            "offset": 0,
            "slot": "0",
            "type": "t_uint256"
          },
          {
            "astId": 5716,
            "contract": "contracts/AttackOfTheClones.sol:AttackOfTheClones",
            "label": "damage",
            "offset": 0,
            "slot": "1",
            "type": "t_uint256"
          },
          {
            "astId": 5718,
            "contract": "contracts/AttackOfTheClones.sol:AttackOfTheClones",
            "label": "reward",
            "offset": 0,
            "slot": "2",
            "type": "t_uint256"
          },
          {
            "astId": 5720,
            "contract": "contracts/AttackOfTheClones.sol:AttackOfTheClones",
            "label": "punkIndex",
            "offset": 0,
            "slot": "3",
            "type": "t_uint16"
          },
          {
            "astId": 5722,
            "contract": "contracts/AttackOfTheClones.sol:AttackOfTheClones",
            "label": "active",
            "offset": 2,
            "slot": "3",
            "type": "t_bool"
          }
        ],
        "numberOfBytes": "128"
      },
      "t_struct(Character)5759_storage": {
        "encoding": "inplace",
        "label": "struct Character",
        "members": [
          {
            "astId": 5748,
            "contract": "contracts/AttackOfTheClones.sol:AttackOfTheClones",
            "label": "hp",
            "offset": 0,
            "slot": "0",
            "type": "t_uint256"
          },
          {
            "astId": 5750,
            "contract": "contracts/AttackOfTheClones.sol:AttackOfTheClones",
            "label": "damage",
            "offset": 0,
            "slot": "1",
            "type": "t_uint256"
          },
          {
            "astId": 5752,
            "contract": "contracts/AttackOfTheClones.sol:AttackOfTheClones",
            "label": "xp",
            "offset": 0,
            "slot": "2",
            "type": "t_uint256"
          },
          {
            "astId": 5754,
            "contract": "contracts/AttackOfTheClones.sol:AttackOfTheClones",
            "label": "lastFireballAttack",
            "offset": 0,
            "slot": "3",
            "type": "t_uint256"
          },
          {
            "astId": 5756,
            "contract": "contracts/AttackOfTheClones.sol:AttackOfTheClones",
            "label": "active",
            "offset": 0,
            "slot": "4",
            "type": "t_bool"
          },
          {
            "astId": 5758,
            "contract": "contracts/AttackOfTheClones.sol:AttackOfTheClones",
            "label": "height",
            "offset": 0,
            "slot": "5",
            "type": "t_uint256"
          }
        ],
        "numberOfBytes": "192"
      },
      "t_struct(RequestStatus)4793_storage": {
        "encoding": "inplace",
        "label": "struct AttackOfTheClones.RequestStatus",
        "members": [
          {
            "astId": 4785,
            "contract": "contracts/AttackOfTheClones.sol:AttackOfTheClones",
            "label": "fulfilled",
            "offset": 0,
            "slot": "0",
            "type": "t_bool"
          },
          {
            "astId": 4787,
            "contract": "contracts/AttackOfTheClones.sol:AttackOfTheClones",
            "label": "exists",
            "offset": 1,
            "slot": "0",
            "type": "t_bool"
          },
          {
            "astId": 4790,
            "contract": "contracts/AttackOfTheClones.sol:AttackOfTheClones",
            "label": "randomWords",
            "offset": 0,
            "slot": "1",
            "type": "t_array(t_uint256)dyn_storage"
          },
          {
            "astId": 4792,
            "contract": "contracts/AttackOfTheClones.sol:AttackOfTheClones",
            "label": "sender",
            "offset": 0,
            "slot": "2",
            "type": "t_address"
          }
        ],
        "numberOfBytes": "96"
      },
      "t_uint16": {
        "encoding": "inplace",
        "label": "uint16",
        "numberOfBytes": "2"
      },
      "t_uint256": {
        "encoding": "inplace",
        "label": "uint256",
        "numberOfBytes": "32"
      },
      "t_uint32": {
        "encoding": "inplace",
        "label": "uint32",
        "numberOfBytes": "4"
      },
      "t_uint64": {
        "encoding": "inplace",
        "label": "uint64",
        "numberOfBytes": "8"
      }
    }
  }
}