{
  "address": "0x5607A9b8605bF876802a40051B5bbc63B6F623a1",
  "abi": [
    {
      "inputs": [
        {
          "internalType": "uint16",
          "name": "index",
          "type": "uint16"
        }
      ],
      "name": "punkImageSvg",
      "outputs": [
        {
          "internalType": "string",
          "name": "svg",
          "type": "string"
        }
      ],
      "stateMutability": "view",
      "type": "function"
    }
  ],
  "transactionHash": "0x76ef9eb47e2964e6f94d2766386300d0ca797ea5e76c031cbc6fe8c19c023e85",
  "args": [],
  "numDeployments": 1,
  "solcInputHash": "e687102257ba9562aa9c6ec8960a8df9",
  "bytecode": "0x608060405234801561001057600080fd5b5061482d806100206000396000f3fe608060405234801561001057600080fd5b506004361061002b5760003560e01c806374beb04714610030575b600080fd5b61004a6004803603810190610045919061009a565b610060565b60405161005791906100fc565b60405180910390f35b606060405180614680016040528061465481526020016101a461465491399050919050565b6000813590506100948161018c565b92915050565b6000602082840312156100ac57600080fd5b60006100ba84828501610085565b91505092915050565b60006100ce8261011e565b6100d88185610129565b93506100e8818560208601610148565b6100f18161017b565b840191505092915050565b6000602082019050818103600083015261011681846100c3565b905092915050565b600081519050919050565b600082825260208201905092915050565b600061ffff82169050919050565b60005b8381101561016657808201518184015260208101905061014b565b83811115610175576000848401525b50505050565b6000601f19601f8301169050919050565b6101958161013a565b81146101a057600080fd5b5056fe646174613a696d6167652f7376672b786d6c3b757466382c3c73766720786d6c6e733d22687474703a2f2f7777772e77332e6f72672f323030302f737667222076657273696f6e3d22312e32222076696577426f783d22302030203234203234223e3c7265637420783d2231322220793d2231222077696474683d223122206865696768743d2231222073686170652d72656e646572696e673d2263726973704564676573222066696c6c3d22233030303030306666222f3e3c7265637420783d2231332220793d2231222077696474683d223122206865696768743d2231222073686170652d72656e646572696e673d2263726973704564676573222066696c6c3d22233030303030306666222f3e3c7265637420783d2231312220793d2232222077696474683d223122206865696768743d2231222073686170652d72656e646572696e673d2263726973704564676573222066696c6c3d22233030303030306666222f3e3c7265637420783d2231322220793d2232222077696474683d223122206865696768743d2231222073686170652d72656e646572696e673d2263726973704564676573222066696c6c3d22236136366532636666222f3e3c7265637420783d2231332220793d2232222077696474683d223122206865696768743d2231222073686170652d72656e646572696e673d2263726973704564676573222066696c6c3d22233030303030306666222f3e3c7265637420783d2231302220793d2233222077696474683d223122206865696768743d2231222073686170652d72656e646572696e673d2263726973704564676573222066696c6c3d22233030303030306666222f3e3c7265637420783d2231312220793d2233222077696474683d223122206865696768743d2231222073686170652d72656e646572696e673d2263726973704564676573222066696c6c3d22236136366532636666222f3e3c7265637420783d2231322220793d2233222077696474683d223122206865696768743d2231222073686170652d72656e646572696e673d2263726973704564676573222066696c6c3d22236136366532636666222f3e3c7265637420783d2231332220793d2233222077696474683d223122206865696768743d2231222073686170652d72656e646572696e673d2263726973704564676573222066696c6c3d22233030303030306666222f3e3c7265637420783d22392220793d2234222077696474683d223122206865696768743d2231222073686170652d72656e646572696e673d2263726973704564676573222066696c6c3d22233030303030306666222f3e3c7265637420783d2231302220793d2234222077696474683d223122206865696768743d2231222073686170652d72656e646572696e673d2263726973704564676573222066696c6c3d22233835353631656666222f3e3c7265637420783d2231312220793d2234222077696474683d223122206865696768743d2231222073686170652d72656e646572696e673d2263726973704564676573222066696c6c3d22236136366532636666222f3e3c7265637420783d2231322220793d2234222077696474683d223122206865696768743d2231222073686170652d72656e646572696e673d2263726973704564676573222066696c6c3d22236136366532636666222f3e3c7265637420783d2231332220793d2234222077696474683d223122206865696768743d2231222073686170652d72656e646572696e673d2263726973704564676573222066696c6c3d22233030303030306666222f3e3c7265637420783d22382220793d2235222077696474683d223122206865696768743d2231222073686170652d72656e646572696e673d2263726973704564676573222066696c6c3d22233030303030306666222f3e3c7265637420783d22392220793d2235222077696474683d223122206865696768743d2231222073686170652d72656e646572696e673d2263726973704564676573222066696c6c3d22233835353631656666222f3e3c7265637420783d2231302220793d2235222077696474683d223122206865696768743d2231222073686170652d72656e646572696e673d2263726973704564676573222066696c6c3d22236136366532636666222f3e3c7265637420783d2231312220793d2235222077696474683d223122206865696768743d2231222073686170652d72656e646572696e673d2263726973704564676573222066696c6c3d22236136366532636666222f3e3c7265637420783d2231322220793d2235222077696474683d223122206865696768743d2231222073686170652d72656e646572696e673d2263726973704564676573222066696c6c3d22236136366532636666222f3e3c7265637420783d2231332220793d2235222077696474683d223122206865696768743d2231222073686170652d72656e646572696e673d2263726973704564676573222066696c6c3d22233030303030306666222f3e3c7265637420783d2231342220793d2235222077696474683d223122206865696768743d2231222073686170652d72656e646572696e673d2263726973704564676573222066696c6c3d22233030303030306666222f3e3c7265637420783d22372220793d2236222077696474683d223122206865696768743d2231222073686170652d72656e646572696e673d2263726973704564676573222066696c6c3d22233030303030306666222f3e3c7265637420783d22382220793d2236222077696474683d223122206865696768743d2231222073686170652d72656e646572696e673d2263726973704564676573222066696c6c3d22233731336631646666222f3e3c7265637420783d22392220793d2236222077696474683d223122206865696768743d2231222073686170652d72656e646572696e673d2263726973704564676573222066696c6c3d22233731336631646666222f3e3c7265637420783d2231302220793d2236222077696474683d223122206865696768743d2231222073686170652d72656e646572696e673d2263726973704564676573222066696c6c3d22233731336631646666222f3e3c7265637420783d2231312220793d2236222077696474683d223122206865696768743d2231222073686170652d72656e646572696e673d2263726973704564676573222066696c6c3d22236136366532636666222f3e3c7265637420783d2231322220793d2236222077696474683d223122206865696768743d2231222073686170652d72656e646572696e673d2263726973704564676573222066696c6c3d22236136366532636666222f3e3c7265637420783d2231332220793d2236222077696474683d223122206865696768743d2231222073686170652d72656e646572696e673d2263726973704564676573222066696c6c3d22233731336631646666222f3e3c7265637420783d2231342220793d2236222077696474683d223122206865696768743d2231222073686170652d72656e646572696e673d2263726973704564676573222066696c6c3d22233731336631646666222f3e3c7265637420783d2231352220793d2236222077696474683d223122206865696768743d2231222073686170652d72656e646572696e673d2263726973704564676573222066696c6c3d22233030303030306666222f3e3c7265637420783d22362220793d2237222077696474683d223122206865696768743d2231222073686170652d72656e646572696e673d2263726973704564676573222066696c6c3d22233030303030306666222f3e3c7265637420783d22372220793d2237222077696474683d223122206865696768743d2231222073686170652d72656e646572696e673d2263726973704564676573222066696c6c3d22233731336631646666222f3e3c7265637420783d22382220793d2237222077696474683d223122206865696768743d2231222073686170652d72656e646572696e673d2263726973704564676573222066696c6c3d22233731336631646666222f3e3c7265637420783d22392220793d2237222077696474683d223122206865696768743d2231222073686170652d72656e646572696e673d2263726973704564676573222066696c6c3d22233862353332636666222f3e3c7265637420783d2231302220793d2237222077696474683d223122206865696768743d2231222073686170652d72656e646572696e673d2263726973704564676573222066696c6c3d22233731336631646666222f3e3c7265637420783d2231312220793d2237222077696474683d223122206865696768743d2231222073686170652d72656e646572696e673d2263726973704564676573222066696c6c3d22233731336631646666222f3e3c7265637420783d2231322220793d2237222077696474683d223122206865696768743d2231222073686170652d72656e646572696e673d2263726973704564676573222066696c6c3d22236136366532636666222f3e3c7265637420783d2231332220793d2237222077696474683d223122206865696768743d2231222073686170652d72656e646572696e673d2263726973704564676573222066696c6c3d22233731336631646666222f3e3c7265637420783d2231342220793d2237222077696474683d223122206865696768743d2231222073686170652d72656e646572696e673d2263726973704564676573222066696c6c3d22233731336631646666222f3e3c7265637420783d2231352220793d2237222077696474683d223122206865696768743d2231222073686170652d72656e646572696e673d2263726973704564676573222066696c6c3d22233731336631646666222f3e3c7265637420783d2231362220793d2237222077696474683d223122206865696768743d2231222073686170652d72656e646572696e673d2263726973704564676573222066696c6c3d22233030303030306666222f3e3c7265637420783d22362220793d2238222077696474683d223122206865696768743d2231222073686170652d72656e646572696e673d2263726973704564676573222066696c6c3d22233030303030306666222f3e3c7265637420783d22372220793d2238222077696474683d223122206865696768743d2231222073686170652d72656e646572696e673d2263726973704564676573222066696c6c3d22233731336631646666222f3e3c7265637420783d22382220793d2238222077696474683d223122206865696768743d2231222073686170652d72656e646572696e673d2263726973704564676573222066696c6c3d22233862353332636666222f3e3c7265637420783d22392220793d2238222077696474683d223122206865696768743d2231222073686170652d72656e646572696e673d2263726973704564676573222066696c6c3d22233731336631646666222f3e3c7265637420783d2231302220793d2238222077696474683d223122206865696768743d2231222073686170652d72656e646572696e673d2263726973704564676573222066696c6c3d22233731336631646666222f3e3c7265637420783d2231312220793d2238222077696474683d223122206865696768743d2231222073686170652d72656e646572696e673d2263726973704564676573222066696c6c3d22233731336631646666222f3e3c7265637420783d2231322220793d2238222077696474683d223122206865696768743d2231222073686170652d72656e646572696e673d2263726973704564676573222066696c6c3d22233731336631646666222f3e3c7265637420783d2231332220793d2238222077696474683d223122206865696768743d2231222073686170652d72656e646572696e673d2263726973704564676573222066696c6c3d22233731336631646666222f3e3c7265637420783d2231342220793d2238222077696474683d223122206865696768743d2231222073686170652d72656e646572696e673d2263726973704564676573222066696c6c3d22233731336631646666222f3e3c7265637420783d2231352220793d2238222077696474683d223122206865696768743d2231222073686170652d72656e646572696e673d2263726973704564676573222066696c6c3d22233731336631646666222f3e3c7265637420783d2231362220793d2238222077696474683d223122206865696768743d2231222073686170652d72656e646572696e673d2263726973704564676573222066696c6c3d22233030303030306666222f3e3c7265637420783d22362220793d2239222077696474683d223122206865696768743d2231222073686170652d72656e646572696e673d2263726973704564676573222066696c6c3d22233030303030306666222f3e3c7265637420783d22372220793d2239222077696474683d223122206865696768743d2231222073686170652d72656e646572696e673d2263726973704564676573222066696c6c3d22233731336631646666222f3e3c7265637420783d22382220793d2239222077696474683d223122206865696768743d2231222073686170652d72656e646572696e673d2263726973704564676573222066696c6c3d22233731336631646666222f3e3c7265637420783d22392220793d2239222077696474683d223122206865696768743d2231222073686170652d72656e646572696e673d2263726973704564676573222066696c6c3d22233731336631646666222f3e3c7265637420783d2231302220793d2239222077696474683d223122206865696768743d2231222073686170652d72656e646572696e673d2263726973704564676573222066696c6c3d22233731336631646666222f3e3c7265637420783d2231312220793d2239222077696474683d223122206865696768743d2231222073686170652d72656e646572696e673d2263726973704564676573222066696c6c3d22233731336631646666222f3e3c7265637420783d2231322220793d2239222077696474683d223122206865696768743d2231222073686170652d72656e646572696e673d2263726973704564676573222066696c6c3d22233731336631646666222f3e3c7265637420783d2231332220793d2239222077696474683d223122206865696768743d2231222073686170652d72656e646572696e673d2263726973704564676573222066696c6c3d22233731336631646666222f3e3c7265637420783d2231342220793d2239222077696474683d223122206865696768743d2231222073686170652d72656e646572696e673d2263726973704564676573222066696c6c3d22233731336631646666222f3e3c7265637420783d2231352220793d2239222077696474683d223122206865696768743d2231222073686170652d72656e646572696e673d2263726973704564676573222066696c6c3d22233731336631646666222f3e3c7265637420783d2231362220793d2239222077696474683d223122206865696768743d2231222073686170652d72656e646572696e673d2263726973704564676573222066696c6c3d22233030303030306666222f3e3c7265637420783d22362220793d223130222077696474683d223122206865696768743d2231222073686170652d72656e646572696e673d2263726973704564676573222066696c6c3d22233030303030306666222f3e3c7265637420783d22372220793d223130222077696474683d223122206865696768743d2231222073686170652d72656e646572696e673d2263726973704564676573222066696c6c3d22233731336631646666222f3e3c7265637420783d22382220793d223130222077696474683d223122206865696768743d2231222073686170652d72656e646572696e673d2263726973704564676573222066696c6c3d22233731336631646666222f3e3c7265637420783d22392220793d223130222077696474683d223122206865696768743d2231222073686170652d72656e646572696e673d2263726973704564676573222066696c6c3d22233731336631646666222f3e3c7265637420783d2231302220793d223130222077696474683d223122206865696768743d2231222073686170652d72656e646572696e673d2263726973704564676573222066696c6c3d22233731336631646666222f3e3c7265637420783d2231312220793d223130222077696474683d223122206865696768743d2231222073686170652d72656e646572696e673d2263726973704564676573222066696c6c3d22233731336631646666222f3e3c7265637420783d2231322220793d223130222077696474683d223122206865696768743d2231222073686170652d72656e646572696e673d2263726973704564676573222066696c6c3d22233731336631646666222f3e3c7265637420783d2231332220793d223130222077696474683d223122206865696768743d2231222073686170652d72656e646572696e673d2263726973704564676573222066696c6c3d22233731336631646666222f3e3c7265637420783d2231342220793d223130222077696474683d223122206865696768743d2231222073686170652d72656e646572696e673d2263726973704564676573222066696c6c3d22233731336631646666222f3e3c7265637420783d2231352220793d223130222077696474683d223122206865696768743d2231222073686170652d72656e646572696e673d2263726973704564676573222066696c6c3d22233731336631646666222f3e3c7265637420783d2231362220793d223130222077696474683d223122206865696768743d2231222073686170652d72656e646572696e673d2263726973704564676573222066696c6c3d22233030303030306666222f3e3c7265637420783d22362220793d223131222077696474683d223122206865696768743d2231222073686170652d72656e646572696e673d2263726973704564676573222066696c6c3d22233030303030306666222f3e3c7265637420783d22372220793d223131222077696474683d223122206865696768743d2231222073686170652d72656e646572696e673d2263726973704564676573222066696c6c3d22233731336631646666222f3e3c7265637420783d22382220793d223131222077696474683d223122206865696768743d2231222073686170652d72656e646572696e673d2263726973704564676573222066696c6c3d22233731336631646666222f3e3c7265637420783d22392220793d223131222077696474683d223122206865696768743d2231222073686170652d72656e646572696e673d2263726973704564676573222066696c6c3d22233536323630306666222f3e3c7265637420783d2231302220793d223131222077696474683d223122206865696768743d2231222073686170652d72656e646572696e673d2263726973704564676573222066696c6c3d22233536323630306666222f3e3c7265637420783d2231312220793d223131222077696474683d223122206865696768743d2231222073686170652d72656e646572696e673d2263726973704564676573222066696c6c3d22233731336631646666222f3e3c7265637420783d2231322220793d223131222077696474683d223122206865696768743d2231222073686170652d72656e646572696e673d2263726973704564676573222066696c6c3d22233731336631646666222f3e3c7265637420783d2231332220793d223131222077696474683d223122206865696768743d2231222073686170652d72656e646572696e673d2263726973704564676573222066696c6c3d22233731336631646666222f3e3c7265637420783d2231342220793d223131222077696474683d223122206865696768743d2231222073686170652d72656e646572696e673d2263726973704564676573222066696c6c3d22233536323630306666222f3e3c7265637420783d2231352220793d223131222077696474683d223122206865696768743d2231222073686170652d72656e646572696e673d2263726973704564676573222066696c6c3d22233536323630306666222f3e3c7265637420783d2231362220793d223131222077696474683d223122206865696768743d2231222073686170652d72656e646572696e673d2263726973704564676573222066696c6c3d22233030303030306666222f3e3c7265637420783d22352220793d223132222077696474683d223122206865696768743d2231222073686170652d72656e646572696e673d2263726973704564676573222066696c6c3d22233030303030306666222f3e3c7265637420783d22362220793d223132222077696474683d223122206865696768743d2231222073686170652d72656e646572696e673d2263726973704564676573222066696c6c3d22233731336631646666222f3e3c7265637420783d22372220793d223132222077696474683d223122206865696768743d2231222073686170652d72656e646572696e673d2263726973704564676573222066696c6c3d22233731336631646666222f3e3c7265637420783d22382220793d223132222077696474683d223122206865696768743d2231222073686170652d72656e646572696e673d2263726973704564676573222066696c6c3d22233731336631646666222f3e3c7265637420783d22392220793d223132222077696474683d223122206865696768743d2231222073686170652d72656e646572696e673d2263726973704564676573222066696c6c3d22233030303030306666222f3e3c7265637420783d2231302220793d223132222077696474683d223122206865696768743d2231222073686170652d72656e646572696e673d2263726973704564676573222066696c6c3d22233732333730396666222f3e3c7265637420783d2231312220793d223132222077696474683d223122206865696768743d2231222073686170652d72656e646572696e673d2263726973704564676573222066696c6c3d22233731336631646666222f3e3c7265637420783d2231322220793d223132222077696474683d223122206865696768743d2231222073686170652d72656e646572696e673d2263726973704564676573222066696c6c3d22233731336631646666222f3e3c7265637420783d2231332220793d223132222077696474683d223122206865696768743d2231222073686170652d72656e646572696e673d2263726973704564676573222066696c6c3d22233731336631646666222f3e3c7265637420783d2231342220793d223132222077696474683d223122206865696768743d2231222073686170652d72656e646572696e673d2263726973704564676573222066696c6c3d22233030303030306666222f3e3c7265637420783d2231352220793d223132222077696474683d223122206865696768743d2231222073686170652d72656e646572696e673d2263726973704564676573222066696c6c3d22233732333730396666222f3e3c7265637420783d2231362220793d223132222077696474683d223122206865696768743d2231222073686170652d72656e646572696e673d2263726973704564676573222066696c6c3d22233030303030306666222f3e3c7265637420783d22352220793d223133222077696474683d223122206865696768743d2231222073686170652d72656e646572696e673d2263726973704564676573222066696c6c3d22233030303030306666222f3e3c7265637420783d22362220793d223133222077696474683d223122206865696768743d2231222073686170652d72656e646572696e673d2263726973704564676573222066696c6c3d22233731336631646666222f3e3c7265637420783d22372220793d223133222077696474683d223122206865696768743d2231222073686170652d72656e646572696e673d2263726973704564676573222066696c6c3d22233731336631646666222f3e3c7265637420783d22382220793d223133222077696474683d223122206865696768743d2231222073686170652d72656e646572696e673d2263726973704564676573222066696c6c3d22233731336631646666222f3e3c7265637420783d22392220793d223133222077696474683d223122206865696768743d2231222073686170652d72656e646572696e673d2263726973704564676573222066696c6c3d22233731336631646666222f3e3c7265637420783d2231302220793d223133222077696474683d223122206865696768743d2231222073686170652d72656e646572696e673d2263726973704564676573222066696c6c3d22233731336631646666222f3e3c7265637420783d2231312220793d223133222077696474683d223122206865696768743d2231222073686170652d72656e646572696e673d2263726973704564676573222066696c6c3d22233731336631646666222f3e3c7265637420783d2231322220793d223133222077696474683d223122206865696768743d2231222073686170652d72656e646572696e673d2263726973704564676573222066696c6c3d22233731336631646666222f3e3c7265637420783d2231332220793d223133222077696474683d223122206865696768743d2231222073686170652d72656e646572696e673d2263726973704564676573222066696c6c3d22233731336631646666222f3e3c7265637420783d2231342220793d223133222077696474683d223122206865696768743d2231222073686170652d72656e646572696e673d2263726973704564676573222066696c6c3d22233731336631646666222f3e3c7265637420783d2231352220793d223133222077696474683d223122206865696768743d2231222073686170652d72656e646572696e673d2263726973704564676573222066696c6c3d22233731336631646666222f3e3c7265637420783d2231362220793d223133222077696474683d223122206865696768743d2231222073686170652d72656e646572696e673d2263726973704564676573222066696c6c3d22233030303030306666222f3e3c7265637420783d22352220793d223134222077696474683d223122206865696768743d2231222073686170652d72656e646572696e673d2263726973704564676573222066696c6c3d22233030303030306666222f3e3c7265637420783d22362220793d223134222077696474683d223122206865696768743d2231222073686170652d72656e646572696e673d2263726973704564676573222066696c6c3d22233030303030306666222f3e3c7265637420783d22372220793d223134222077696474683d223122206865696768743d2231222073686170652d72656e646572696e673d2263726973704564676573222066696c6c3d22233731336631646666222f3e3c7265637420783d22382220793d223134222077696474683d223122206865696768743d2231222073686170652d72656e646572696e673d2263726973704564676573222066696c6c3d22233731336631646666222f3e3c7265637420783d22392220793d223134222077696474683d223122206865696768743d2231222073686170652d72656e646572696e673d2263726973704564676573222066696c6c3d22233731336631646666222f3e3c7265637420783d2231302220793d223134222077696474683d223122206865696768743d2231222073686170652d72656e646572696e673d2263726973704564676573222066696c6c3d22233731336631646666222f3e3c7265637420783d2231312220793d223134222077696474683d223122206865696768743d2231222073686170652d72656e646572696e673d2263726973704564676573222066696c6c3d22233731336631646666222f3e3c7265637420783d2231322220793d223134222077696474683d223122206865696768743d2231222073686170652d72656e646572696e673d2263726973704564676573222066696c6c3d22233731336631646666222f3e3c7265637420783d2231332220793d223134222077696474683d223122206865696768743d2231222073686170652d72656e646572696e673d2263726973704564676573222066696c6c3d22233731336631646666222f3e3c7265637420783d2231342220793d223134222077696474683d223122206865696768743d2231222073686170652d72656e646572696e673d2263726973704564676573222066696c6c3d22233731336631646666222f3e3c7265637420783d2231352220793d223134222077696474683d223122206865696768743d2231222073686170652d72656e646572696e673d2263726973704564676573222066696c6c3d22233731336631646666222f3e3c7265637420783d2231362220793d223134222077696474683d223122206865696768743d2231222073686170652d72656e646572696e673d2263726973704564676573222066696c6c3d22233030303030306666222f3e3c7265637420783d22362220793d223135222077696474683d223122206865696768743d2231222073686170652d72656e646572696e673d2263726973704564676573222066696c6c3d22233030303030306666222f3e3c7265637420783d22372220793d223135222077696474683d223122206865696768743d2231222073686170652d72656e646572696e673d2263726973704564676573222066696c6c3d22233731336631646666222f3e3c7265637420783d22382220793d223135222077696474683d223122206865696768743d2231222073686170652d72656e646572696e673d2263726973704564676573222066696c6c3d22233731336631646666222f3e3c7265637420783d22392220793d223135222077696474683d223122206865696768743d2231222073686170652d72656e646572696e673d2263726973704564676573222066696c6c3d22233731336631646666222f3e3c7265637420783d2231302220793d223135222077696474683d223122206865696768743d2231222073686170652d72656e646572696e673d2263726973704564676573222066696c6c3d22233731336631646666222f3e3c7265637420783d2231312220793d223135222077696474683d223122206865696768743d2231222073686170652d72656e646572696e673d2263726973704564676573222066696c6c3d22233731336631646666222f3e3c7265637420783d2231322220793d223135222077696474683d223122206865696768743d2231222073686170652d72656e646572696e673d2263726973704564676573222066696c6c3d22233030303030306666222f3e3c7265637420783d2231332220793d223135222077696474683d223122206865696768743d2231222073686170652d72656e646572696e673d2263726973704564676573222066696c6c3d22233030303030306666222f3e3c7265637420783d2231342220793d223135222077696474683d223122206865696768743d2231222073686170652d72656e646572696e673d2263726973704564676573222066696c6c3d22233731336631646666222f3e3c7265637420783d2231352220793d223135222077696474683d223122206865696768743d2231222073686170652d72656e646572696e673d2263726973704564676573222066696c6c3d22233731336631646666222f3e3c7265637420783d2231362220793d223135222077696474683d223122206865696768743d2231222073686170652d72656e646572696e673d2263726973704564676573222066696c6c3d22233030303030306666222f3e3c7265637420783d22362220793d223136222077696474683d223122206865696768743d2231222073686170652d72656e646572696e673d2263726973704564676573222066696c6c3d22233030303030306666222f3e3c7265637420783d22372220793d223136222077696474683d223122206865696768743d2231222073686170652d72656e646572696e673d2263726973704564676573222066696c6c3d22233731336631646666222f3e3c7265637420783d22382220793d223136222077696474683d223122206865696768743d2231222073686170652d72656e646572696e673d2263726973704564676573222066696c6c3d22233731336631646666222f3e3c7265637420783d22392220793d223136222077696474683d223122206865696768743d2231222073686170652d72656e646572696e673d2263726973704564676573222066696c6c3d22233731336631646666222f3e3c7265637420783d2231302220793d223136222077696474683d223122206865696768743d2231222073686170652d72656e646572696e673d2263726973704564676573222066696c6c3d22233731336631646666222f3e3c7265637420783d2231312220793d223136222077696474683d223122206865696768743d2231222073686170652d72656e646572696e673d2263726973704564676573222066696c6c3d22233731336631646666222f3e3c7265637420783d2231322220793d223136222077696474683d223122206865696768743d2231222073686170652d72656e646572696e673d2263726973704564676573222066696c6c3d22233731336631646666222f3e3c7265637420783d2231332220793d223136222077696474683d223122206865696768743d2231222073686170652d72656e646572696e673d2263726973704564676573222066696c6c3d22233731336631646666222f3e3c7265637420783d2231342220793d223136222077696474683d223122206865696768743d2231222073686170652d72656e646572696e673d2263726973704564676573222066696c6c3d22233731336631646666222f3e3c7265637420783d2231352220793d223136222077696474683d223122206865696768743d2231222073686170652d72656e646572696e673d2263726973704564676573222066696c6c3d22233731336631646666222f3e3c7265637420783d2231362220793d223136222077696474683d223122206865696768743d2231222073686170652d72656e646572696e673d2263726973704564676573222066696c6c3d22233030303030306666222f3e3c7265637420783d22362220793d223137222077696474683d223122206865696768743d2231222073686170652d72656e646572696e673d2263726973704564676573222066696c6c3d22233030303030306666222f3e3c7265637420783d22372220793d223137222077696474683d223122206865696768743d2231222073686170652d72656e646572696e673d2263726973704564676573222066696c6c3d22233731336631646666222f3e3c7265637420783d22382220793d223137222077696474683d223122206865696768743d2231222073686170652d72656e646572696e673d2263726973704564676573222066696c6c3d22233731336631646666222f3e3c7265637420783d22392220793d223137222077696474683d223122206865696768743d2231222073686170652d72656e646572696e673d2263726973704564676573222066696c6c3d22233731336631646666222f3e3c7265637420783d2231302220793d223137222077696474683d223122206865696768743d2231222073686170652d72656e646572696e673d2263726973704564676573222066696c6c3d22233030303030306666222f3e3c7265637420783d2231312220793d223137222077696474683d223122206865696768743d2231222073686170652d72656e646572696e673d2263726973704564676573222066696c6c3d22233731336631646666222f3e3c7265637420783d2231322220793d223137222077696474683d223122206865696768743d2231222073686170652d72656e646572696e673d2263726973704564676573222066696c6c3d22233731336631646666222f3e3c7265637420783d2231332220793d223137222077696474683d223122206865696768743d2231222073686170652d72656e646572696e673d2263726973704564676573222066696c6c3d22233731336631646666222f3e3c7265637420783d2231342220793d223137222077696474683d223122206865696768743d2231222073686170652d72656e646572696e673d2263726973704564676573222066696c6c3d22233731336631646666222f3e3c7265637420783d2231352220793d223137222077696474683d223122206865696768743d2231222073686170652d72656e646572696e673d2263726973704564676573222066696c6c3d22233731336631646666222f3e3c7265637420783d2231362220793d223137222077696474683d223122206865696768743d2231222073686170652d72656e646572696e673d2263726973704564676573222066696c6c3d22233030303030306666222f3e3c7265637420783d22362220793d223138222077696474683d223122206865696768743d2231222073686170652d72656e646572696e673d2263726973704564676573222066696c6c3d22233030303030306666222f3e3c7265637420783d22372220793d223138222077696474683d223122206865696768743d2231222073686170652d72656e646572696e673d2263726973704564676573222066696c6c3d22233731336631646666222f3e3c7265637420783d22382220793d223138222077696474683d223122206865696768743d2231222073686170652d72656e646572696e673d2263726973704564676573222066696c6c3d22233731336631646666222f3e3c7265637420783d22392220793d223138222077696474683d223122206865696768743d2231222073686170652d72656e646572696e673d2263726973704564676573222066696c6c3d22233731336631646666222f3e3c7265637420783d2231302220793d223138222077696474683d223122206865696768743d2231222073686170652d72656e646572696e673d2263726973704564676573222066696c6c3d22233731336631646666222f3e3c7265637420783d2231312220793d223138222077696474683d223122206865696768743d2231222073686170652d72656e646572696e673d2263726973704564676573222066696c6c3d22233030303030306666222f3e3c7265637420783d2231322220793d223138222077696474683d223122206865696768743d2231222073686170652d72656e646572696e673d2263726973704564676573222066696c6c3d22233030303030306666222f3e3c7265637420783d2231332220793d223138222077696474683d223122206865696768743d2231222073686170652d72656e646572696e673d2263726973704564676573222066696c6c3d22233030303030306666222f3e3c7265637420783d2231342220793d223138222077696474683d223122206865696768743d2231222073686170652d72656e646572696e673d2263726973704564676573222066696c6c3d22233731336631646666222f3e3c7265637420783d2231352220793d223138222077696474683d223122206865696768743d2231222073686170652d72656e646572696e673d2263726973704564676573222066696c6c3d22233731336631646666222f3e3c7265637420783d2231362220793d223138222077696474683d223122206865696768743d2231222073686170652d72656e646572696e673d2263726973704564676573222066696c6c3d22233030303030306666222f3e3c7265637420783d22362220793d223139222077696474683d223122206865696768743d2231222073686170652d72656e646572696e673d2263726973704564676573222066696c6c3d22233030303030306666222f3e3c7265637420783d22372220793d223139222077696474683d223122206865696768743d2231222073686170652d72656e646572696e673d2263726973704564676573222066696c6c3d22233731336631646666222f3e3c7265637420783d22382220793d223139222077696474683d223122206865696768743d2231222073686170652d72656e646572696e673d2263726973704564676573222066696c6c3d22233731336631646666222f3e3c7265637420783d22392220793d223139222077696474683d223122206865696768743d2231222073686170652d72656e646572696e673d2263726973704564676573222066696c6c3d22233731336631646666222f3e3c7265637420783d2231302220793d223139222077696474683d223122206865696768743d2231222073686170652d72656e646572696e673d2263726973704564676573222066696c6c3d22233731336631646666222f3e3c7265637420783d2231312220793d223139222077696474683d223122206865696768743d2231222073686170652d72656e646572696e673d2263726973704564676573222066696c6c3d22233731336631646666222f3e3c7265637420783d2231322220793d223139222077696474683d223122206865696768743d2231222073686170652d72656e646572696e673d2263726973704564676573222066696c6c3d22233731336631646666222f3e3c7265637420783d2231332220793d223139222077696474683d223122206865696768743d2231222073686170652d72656e646572696e673d2263726973704564676573222066696c6c3d22233731336631646666222f3e3c7265637420783d2231342220793d223139222077696474683d223122206865696768743d2231222073686170652d72656e646572696e673d2263726973704564676573222066696c6c3d22233731336631646666222f3e3c7265637420783d2231352220793d223139222077696474683d223122206865696768743d2231222073686170652d72656e646572696e673d2263726973704564676573222066696c6c3d22233731336631646666222f3e3c7265637420783d2231362220793d223139222077696474683d223122206865696768743d2231222073686170652d72656e646572696e673d2263726973704564676573222066696c6c3d22233030303030306666222f3e3c7265637420783d22362220793d223230222077696474683d223122206865696768743d2231222073686170652d72656e646572696e673d2263726973704564676573222066696c6c3d22233030303030306666222f3e3c7265637420783d22372220793d223230222077696474683d223122206865696768743d2231222073686170652d72656e646572696e673d2263726973704564676573222066696c6c3d22233731336631646666222f3e3c7265637420783d22382220793d223230222077696474683d223122206865696768743d2231222073686170652d72656e646572696e673d2263726973704564676573222066696c6c3d22233731336631646666222f3e3c7265637420783d22392220793d223230222077696474683d223122206865696768743d2231222073686170652d72656e646572696e673d2263726973704564676573222066696c6c3d22233731336631646666222f3e3c7265637420783d2231302220793d223230222077696474683d223122206865696768743d2231222073686170652d72656e646572696e673d2263726973704564676573222066696c6c3d22233731336631646666222f3e3c7265637420783d2231312220793d223230222077696474683d223122206865696768743d2231222073686170652d72656e646572696e673d2263726973704564676573222066696c6c3d22233731336631646666222f3e3c7265637420783d2231322220793d223230222077696474683d223122206865696768743d2231222073686170652d72656e646572696e673d2263726973704564676573222066696c6c3d22233731336631646666222f3e3c7265637420783d2231332220793d223230222077696474683d223122206865696768743d2231222073686170652d72656e646572696e673d2263726973704564676573222066696c6c3d22233731336631646666222f3e3c7265637420783d2231342220793d223230222077696474683d223122206865696768743d2231222073686170652d72656e646572696e673d2263726973704564676573222066696c6c3d22233731336631646666222f3e3c7265637420783d2231352220793d223230222077696474683d223122206865696768743d2231222073686170652d72656e646572696e673d2263726973704564676573222066696c6c3d22233030303030306666222f3e3c7265637420783d22362220793d223231222077696474683d223122206865696768743d2231222073686170652d72656e646572696e673d2263726973704564676573222066696c6c3d22233030303030306666222f3e3c7265637420783d22372220793d223231222077696474683d223122206865696768743d2231222073686170652d72656e646572696e673d2263726973704564676573222066696c6c3d22233731336631646666222f3e3c7265637420783d22382220793d223231222077696474683d223122206865696768743d2231222073686170652d72656e646572696e673d2263726973704564676573222066696c6c3d22233731336631646666222f3e3c7265637420783d22392220793d223231222077696474683d223122206865696768743d2231222073686170652d72656e646572696e673d2263726973704564676573222066696c6c3d22233731336631646666222f3e3c7265637420783d2231302220793d223231222077696474683d223122206865696768743d2231222073686170652d72656e646572696e673d2263726973704564676573222066696c6c3d22233030303030306666222f3e3c7265637420783d2231312220793d223231222077696474683d223122206865696768743d2231222073686170652d72656e646572696e673d2263726973704564676573222066696c6c3d22233030303030306666222f3e3c7265637420783d2231322220793d223231222077696474683d223122206865696768743d2231222073686170652d72656e646572696e673d2263726973704564676573222066696c6c3d22233030303030306666222f3e3c7265637420783d2231332220793d223231222077696474683d223122206865696768743d2231222073686170652d72656e646572696e673d2263726973704564676573222066696c6c3d22233030303030306666222f3e3c7265637420783d2231342220793d223231222077696474683d223122206865696768743d2231222073686170652d72656e646572696e673d2263726973704564676573222066696c6c3d22233030303030306666222f3e3c7265637420783d22362220793d223232222077696474683d223122206865696768743d2231222073686170652d72656e646572696e673d2263726973704564676573222066696c6c3d22233030303030306666222f3e3c7265637420783d22372220793d223232222077696474683d223122206865696768743d2231222073686170652d72656e646572696e673d2263726973704564676573222066696c6c3d22233731336631646666222f3e3c7265637420783d22382220793d223232222077696474683d223122206865696768743d2231222073686170652d72656e646572696e673d2263726973704564676573222066696c6c3d22233731336631646666222f3e3c7265637420783d22392220793d223232222077696474683d223122206865696768743d2231222073686170652d72656e646572696e673d2263726973704564676573222066696c6c3d22233731336631646666222f3e3c7265637420783d2231302220793d223232222077696474683d223122206865696768743d2231222073686170652d72656e646572696e673d2263726973704564676573222066696c6c3d22233030303030306666222f3e3c7265637420783d22362220793d223233222077696474683d223122206865696768743d2231222073686170652d72656e646572696e673d2263726973704564676573222066696c6c3d22233030303030306666222f3e3c7265637420783d22372220793d223233222077696474683d223122206865696768743d2231222073686170652d72656e646572696e673d2263726973704564676573222066696c6c3d22233731336631646666222f3e3c7265637420783d22382220793d223233222077696474683d223122206865696768743d2231222073686170652d72656e646572696e673d2263726973704564676573222066696c6c3d22233731336631646666222f3e3c7265637420783d22392220793d223233222077696474683d223122206865696768743d2231222073686170652d72656e646572696e673d2263726973704564676573222066696c6c3d22233731336631646666222f3e3c7265637420783d2231302220793d223233222077696474683d223122206865696768743d2231222073686170652d72656e646572696e673d2263726973704564676573222066696c6c3d22233030303030306666222f3e3c2f7376673ea2646970667358221220fe35537edc474dce17795b315438a420bd9d555ce7bcecdc3c3c1d0228f8679664736f6c63430008040033",
  "devdoc": {
    "kind": "dev",
    "methods": {
      "punkImageSvg(uint16)": {
        "params": {
          "index": "the punk index, 0 <= index < 10000"
        }
      }
    },
    "version": 1
  },
  "userdoc": {
    "kind": "user",
    "methods": {
      "punkImageSvg(uint16)": {
        "notice": "The Cryptopunk image for the given index, in SVG format. In the SVG, each \"pixel\" is represented as a 1x1 rectangle."
      }
    },
    "notice": "____                  _                          _          ____        _  / ___|_ __ _   _ _ __ | |_ ___  _ __  _   _ _ __ | | _____  |  _ \\  __ _| |_ __ _ | |   | '__| | | | '_ \\| __/ _ \\| '_ \\| | | | '_ \\| |/ / __| | | | |/ _` | __/ _` | | |___| |  | |_| | |_) | || (_) | |_) | |_| | | | |   <\\__ \\ | |_| | (_| | || (_| |  \\____|_|   \\__, | .__/ \\__\\___/| .__/ \\__,_|_| |_|_|\\_\\___/ |____/ \\__,_|\\__\\__,_|             |___/|_|            |_| On-chain Cryptopunk images and attributes, by Larva Labs. This contract holds the image and attribute data for the Cryptopunks on-chain. The Cryptopunk images are available as raw RGBA pixels, or in SVG format. The punk attributes are available as a comma-separated list. Included in the attribute list is the head type (various color male and female heads, plus the rare zombie, ape, and alien types). This contract was motivated by community members snowfro and 0xdeafbeef, including a proof-of-concept contract created by 0xdeafbeef. Without their involvement, the project would not have come to fruition.",
    "version": 1
  },
  "storageLayout": {
    "storage": [],
    "types": null
  }
}